:0400000054EF00F0C9
:10000800FACF11F0FBCF12F0E9CF13F0EACF14F0DA
:10001800E1CF15F0E2CF16F0D9CF17F0DACF18F00C
:10002800F3CF19F0F4CF1AF0F6CF1BF0F7CF1CF08E
:10003800F8CF1DF0F5CF1EF0F2BAF2A414D0000EDE
:10004800D76E0E0ED66E3850040AD8A403D0000E10
:10005800386E01D0382A38C00DF00E6A8EEC01F0E7
:10006800364A372AF2941EC0F5FF1DC0F8FF1CC09F
:10007800F7FF1BC0F6FF1AC0F4FF19C0F3FF18C042
:10008800DAFF17C0D9FF16C0E2FF15C0E1FF14C0A0
:10009800EAFF13C0E9FF12C0FBFF11C0FAFF11000D
:1000A800C9EF03F004EC03F082A01AD03A6618D026
:1000B800010E3A6E3C04D8A43C2A000E0001656F7C
:1000C800000E0001646F00016551800A590F100E7F
:1000D800D8B4645DD8B004D00001644B652BF3D765
:1000E80082B07BD03A04D8A478D0000E3A6E3C0493
:1000F800D8B43C2A000E0001676F000E0001666F3D
:1001080000016751800A590F100ED8B4665DD8B047
:1001180064D00001664B672BF3D7D59E000E20EC08
:1001280002F0000E0001696F000E0001686F000107
:100138006951800A800F050ED8B4685DD8B0B4D76D
:1001480068C02BF069C02CF0FCEC00F00001684B93
:10015800692BEDD7D58EA8D7D59E000E376E000E29
:10016800366E000E0001606F000E0001616F000E18
:100178000001626F000E0001636F00016351800A85
:10018800800F0BE1010E0001625D07E1D40E000152
:10019800615D03E1C00E0001605DD8B01BD0010EA7
:1001A80000016027000E00016123000162230001A5
:1001B800632300016351800A800F0BE1010E0001E7
:1001C800625D07E1D40E0001615D03E1C00E00012C
:1001D800605DE3D7000E3C6E67D73C50010AD8B487
:1001E8009CD7030AD8B4B6D7010AD8B4B5D75CD718
:1001F80078D036C026F037C027F0000E296E0A0ED8
:10020800286E87EC03F0265020EC02F0010E806E79
:100218001200000E226E0A0E216E36C01FF037C083
:1002280020F035EC03F01FC026F020C027F0000EA8
:10023800296E0A0E286E87EC03F0265020EC02F097
:10024800020E806E1200000E226E640E216E36C001
:100258001FF037C020F035EC03F01FC026F020C097
:1002680027F0000E296E0A0E286E87EC03F0265040
:1002780020EC02F0040E806E1200030E226EE80ECF
:10028800216E36C01FF037C020F035EC03F01FC0D8
:1002980026F020C027F0000E296E0A0E286E87EC83
:1002A80003F0265020EC02F0080E806E1200270E94
:1002B800226E100E216E36C01FF037C020F035ECCC
:1002C80003F01FC026F020C027F0000E296E0A0E8A
:1002D800286E87EC03F0265020EC02F0200E806E8A
:1002E80012002BC02DF02CC02EF02E50000AD8A4DE
:1002F80012002D50000AD8B47CD7010AD8B489D787
:10030800030AD8B4A0D7010AD8B4B7D7070AD8A423
:100318001200CDD778D036C008F037C009F0000EEB
:100328000B6E0A0E0A6EA8EC03F0085092EC02F06D
:10033800010E806E1200000E046E0A0E036E36C0A7
:1003480001F037C002F05EEC03F001C008F002C013
:1003580009F0000E0B6E0A0E0A6EA8EC03F00850A6
:1003680092EC02F0020E806E1200000E046E640E13
:10037800036E36C001F037C002F05EEC03F001C036
:1003880008F002C009F0000E0B6E0A0E0A6EA8EC07
:1003980003F0085092EC02F0040E806E1200030E77
:1003A800046EE80E036E36C001F037C002F05EEC52
:1003B80003F001C008F002C009F0000E0B6E0A0E2F
:1003C8000A6EA8EC03F0085092EC02F0080E806E5A
:1003D8001200270E046E100E036E36C001F037C0EF
:1003E80002F05EEC03F001C008F002C009F0000E54
:1003F8000B6E0A0E0A6EA8EC03F0085092EC02F09D
:10040800200E806E12000DC00FF00EC010F01050BC
:10041800000AD8A412000F50000AD8B47CD7010AE9
:10042800D8B489D7030AD8B4A0D7010AD8B4B7D7A3
:10043800070AD8A41200CDD71F6E50D0829282949A
:1004480082968298829A829C828E120082828294FC
:1004580082968288828A828C828E1200829282940C
:1004680082868298829A828C829E120082928294DC
:1004780082968298828A828C829E120082828294DC
:1004880082968288828A829C829E120082928284CC
:1004980082968298828A829C829E120082928284AC
:1004A80082968298829A829C829E1200829282947C
:1004B80082968288828A828C828E120082928294AC
:1004C80082968298829A829C829E1200829282945C
:1004D80082968298828A829C829E12001F50000A0D
:1004E800D8B4ACD7010AD8B4B1D7030AD8B4B6D7B0
:1004F800010AD8B4BBD7070AD8B4C0D7010AD8B400
:10050800C5D7030AD8B4CAD7010AD8B4CFD70F0AB7
:10051800D8B4D4D7010AD8A41200D8D7016E50D0C5
:100528008292829482968298829A829C828E12000B
:100538008282829482968288828A828C828E12003B
:100548008292829482868298829A828C829E1200FB
:100558008292829482968298828A828C829E1200EB
:100568008282829482968288828A829C829E1200EB
:100578008292828482968298828A829C829E1200CB
:100588008292828482968298829A829C829E1200AB
:100598008292829482968288828A828C828E1200CB
:1005A8008292829482968298829A829C829E12007B
:1005B8008292829482968298828A829C829E12007B
:1005C8000150000AD8B4ACD7010AD8B4B1D7030A8D
:1005D800D8B4B6D7010AD8B4BBD7070AD8B4C0D79D
:1005E800010AD8B4C5D7030AD8B4CAD7010AD8B4FF
:1005F800CFD70F0AD8B4D4D7010AD8A41200D8D7B5
:10060800D08EF80EF26E000EC16E000E926E9368D8
:10061800010E946ED59E000E20EC02F0000E306E96
:10062800000E2F6E3050800A800F050ED8B42F5C54
:10063800D8B009D02FC02BF030C02CF0FCEC00F063
:100648002F4A302AEFD7000E0F015D6FF18CD5903D
:10065800D582D594D596D59AD58CF28AF28CF28E1D
:100668001200000E246E000E236E22502110D8B402
:100678001CD0010E256E04D0D89021362236252AAA
:1006880022AEFAD7D8902336243621501F5C225048
:100698002058D8A005D021501F5E2250205A238010
:1006A800D89022322132252EEDD723C01FF024C046
:1006B80020F01200000E066E000E056E04500310A6
:1006C800D8B41CD0010E076E04D0D8900336043677
:1006D800072A04AEFAD7D890053606360350015CCF
:1006E80004500258D8A005D00350015E0450025AA5
:1006F8000580D89004320332072EEDD705C001F0EB
:1007080006C002F0120029502810D8B418D0010EE3
:100718002A6E04D0D890283629362A2A29AEFAD744
:100728002850265C29502758D8A004D02850265E87
:100738002950275AD890293228322A2EF1D726C094
:1007480026F027C027F012000B500A10D8B418D092
:10075800010E0C6E04D0D8900A360B360C2A0BAE5C
:10076800FAD70A50085C0B500958D8A004D00A5090
:10077800085E0B50095AD8900B320A320C2EF1D76A
:1007880008C008F009C009F012003B6A3A6A396AE1
:10079800386A376A366ABA0EF66E070EF76E000EBA
:1007A800F86E0900F5CF3CF0000EF86E000156EF28
:0407B80000F001004C
:020000040020DA
:08000000FFFFFFFFFFFFFFFF00
:020000040030CA
:0E00000015C87F7CFF8991FF0FC00FE00F40F5
:00000001FF
