:040000008EEF00F08F
:10000800FACF0EF0FBCF0FF0E9CF10F097EF02F028
:10001800D8CF60F0E8CF61F0E0CF62F0FACF63F0BC
:10002800FBCF64F0E9CF65F0EACF66F0E1CF67F087
:10003800E2CF68F0D9CF69F0DACF6AF0F3CF6BF08E
:10004800F4CF6CF0F6CF6DF0F7CF6EF0F8CF6FF01D
:10005800F5CF70F0F2BAF2A43AD0F294000ED76E4F
:100068000F0ED66E2B4A2C2AE80E2B1830E1030E01
:100078002C18D8A42CD0000E2C6E000E2B6E030E5C
:10008800276E2668520E8DEC06F0030E276E266842
:10009800470E8DEC06F0030E276E2668420E8DEC97
:1000A80006F0000E276E000E266E520E8DEC06F03E
:1000B800000E276E000E266E470E8DEC06F0000E21
:1000C800276E000E266E420E8DEC06F000D070C032
:1000D800F5FF6FC0F8FF6EC0F7FF6DC0F6FF6CC08C
:1000E800F4FF6BC0F3FF6AC0DAFF69C0D9FF68C0CC
:1000F800E2FF67C0E1FF66C0EAFF65C0E9FF64C0D0
:10010800FBFF63C0FAFF62C0E0FF61C0E8FF60C0A8
:10011800D8FF100033EF07F0000E0001C86F000E83
:10012800C96F000ECA6F000ECB6F000E0001C86FBA
:10013800000EC96F000ECA6F000ECB6F0001CBBF57
:1001480010D00001CB5116E1A00E0001C85D860E4B
:100158000001C959010E0001CA59D8B00BD001D00D
:1001680009D0010E0001C827000EC923CA23CB23DA
:10017800E5D700D0BEEC07F020EECCF010EEB1F0E1
:100188000E0EDBCFE3FFE806FCE2000E0001C76FAE
:10019800000E0001C66F000E0001C16F000EC06F97
:1001A800000E0001C36F000EC26F000E0001C56F84
:1001B800000EC46F00D0000E0001C86F000EC96F9A
:1001C800000ECA6F000ECB6F0001CBBF0ED000012E
:1001D800CB510001CA110001C91110E1640E0001E0
:1001E800C85DD8B00BD001D009D0010E0001C827D6
:1001F800000EC923CA23CB23E7D700D0010ED1ECC8
:1002080006F071C0C0F072C0C1F0020ED1EC06F069
:1002180071C0C2F072C0C3F0030ED1EC06F071C019
:10022800C4F072C0C5F082B00ED00001C605D8A4D3
:100238000AD00001C7510001D8A402D0010E01D094
:10024800000E0001C76F000E82B0010E0001C66FDC
:100258000001C705D8A4AFD7F00E00018E6F7F0E3E
:1002680000018F6F470E0001906FC0C079F0C1C0C8
:100278007AF056EC07F079C07FF07AC080F07BC046
:1002880081F000C179F001C17AF056EC07F079C02D
:100298007CF07AC07DF07BC07EF0E1EC01F07CC0A0
:1002A8008BF07DC08CF07EC08DF0EBEC03F08BC042
:1002B8009AF08CC09BF08DC09CF042EC03F09AC081
:1002C800A9F09BC0AAF0520EF6EC05F0F00E000162
:1002D8008E6F7F0E00018F6F470E0001906FC2C0B6
:1002E80079F0C3C07AF056EC07F079C07FF07AC095
:1002F80080F07BC081F000C279F001C27AF056EC40
:1003080007F079C07CF07AC07DF07BC07EF0E1EC2C
:1003180001F07CC08BF07DC08CF07EC08DF0EBECE2
:1003280003F08BC09AF08CC09BF08DC09CF042EC1F
:1003380003F09AC0A9F09BC0AAF0470EF6EC05F0AE
:10034800F00E00018E6F7F0E00018F6F470E0001C7
:10035800906FC4C079F0C5C07AF056EC07F079C048
:100368007FF07AC080F07BC081F000C379F001C3D0
:100378007AF056EC07F079C07CF07AC07DF07BC04B
:100388007EF0E1EC01F07CC08BF07DC08CF07EC08B
:100398008DF0EBEC03F08BC09AF08CC09BF08DC015
:1003A8009CF042EC03F09AC0A9F09BC0AAF0420E60
:1003B800F6EC05F000D78EEF00F07EC082F0000169
:1003C800836B846B00017D350001823701E38381F3
:1003D800000182510001856F00018551D8A40AD01F
:1003E800000E00017C6F000E00017D6F000E000101
:1003F8007E6F120081C082F00001836B846B000164
:1004080080350001823701E38381000182510001B8
:100418008A6F00018A51D8A40AD0000E00017C6FAF
:10042800000E00017D6F000E00017E6F12000001BA
:100438008A517B0F000185277EC08AF00001815117
:1004480000018A1B800E00018A1700017D8F0001C0
:10045800808FFF0E00017F17FF0E00018017000E2E
:1004680000018117000E0001866F000E0001876FE2
:10047800000E0001886F070E0001896F00D000018F
:100488007CA10DD000017F51000186270001805119
:1004980000018723000181510001882300D0000159
:1004A800D8907E337D337C330001D8907F378037F6
:1004B80081370001892FE3D700D0090E0001896F29
:1004C80000D000017CA10DD000017F5100018627DA
:1004D8000001805100018723000181510001882318
:1004E80000D00001D8907E337D337C330001D89052
:1004F8008833873386330001892FE3D700D086C03D
:1005080071F087C072F088C073F085C074F08AC03B
:1005180075F094EC04F071C07CF072C07DF073C08B
:100528007EF012001200EACF11F0E1CF12F0E2CF14
:1005380013F0D9CF14F0DACF15F0F3CF16F0F4CFCB
:1005480017F0F6CF18F0F7CF19F0F8CF1AF0F5CF6B
:100558001BF0A49A29C01CF02AC01DF07ACF1CF009
:100568003004D8B406D02F04D8B403D02E04D8A4AD
:1005780053D0520E1C18D8B414D0470E1C18D8B437
:1005880010D0420E1C18D8B40CD02D50010D310ECD
:10059800F324D96E000EF420DA6E1CC0DFFF2D2A7A
:1005A8003BD03004D8A40BD0310E076E000E086E75
:1005B80024EC05F007C000F108C001F100D0000EDE
:1005C800306E2F04D8A40BD0310E076E000E086EC3
:1005D80024EC05F007C000F208C001F200D0000EBC
:1005E8002F6E2E04D8A40BD0310E076E000E086EA5
:1005F80024EC05F007C000F308C001F300D0000E9A
:100608002E6E000E2D6E000E346E000E336E000E30
:10061800326E000E316E00D0520E1C18D8A403D0D2
:10062800010E306E00D0470E1C18D8A403D0010E5E
:100638002F6E00D0420E1C18D8A403D0010E2E6EC7
:1006480000D01BC0F5FF1AC0F8FF19C0F7FF18C08B
:10065800F6FF17C0F4FF16C0F3FF15C0DAFF14C089
:10066800D9FF13C0E2FF12C0E1FF11C0EAFF10C0BA
:10067800E9FF0FC0FBFF0EC0FAFF11009CC09EF0FF
:1006880000019F6BA06B00019B3500019E3701E3C1
:100698009F8100019E510001A86F0001A851D8A4B4
:1006A8000AD0000E00019A6F000E9B6F000E9C6F1F
:1006B800000E9D6F1200170E00019E6F9AC09FF0EA
:1006C8009BC0A0F09CC0A1F000019E290001A26F70
:1006D80005D00001D890A133A0339F330001A22F89
:1006E800F8D700019F510001A36F00019B8FFF0EF7
:1006F80000019A17FF0E00019B17000E00019C17BE
:1007080000019A510001A46F00019B510001A56FDF
:1007180000019C510001A66F0001A76B8E0E00011D
:10072800A85F0001A8AF1BD00001A851800A8F0F55
:10073800D8B00BD0000E00019A6F000E9B6F000E10
:100748009C6F000E9D6F120000D00001D890A73357
:10075800A633A533A4330001A83FF7D71FD0170E3F
:100768000001A86514D0000E00019A6F000E9B6F5F
:10077800000E9C6F000E9D6F120009D00001D890EA
:10078800A437A537A637A7370001A80700D000016E
:10079800A8510001D8B402D0F1D700D00001A3516C
:1007A8000001D8B40AD00001A71FA61FA51FA46D79
:1007B800000EA523A623A72300D0A4C09AF0A5C0A5
:1007C8009BF0A6C09CF0A7C09DF0120012008DC03F
:1007D80091F00001926B936B00018C350001913709
:1007E80001E39281000191510001986F0001985135
:1007F800D8A40AD0000E00018B6F000E00018C6F88
:10080800000E00018D6F120090C091F00001926BF4
:10081800936B00018F350001913701E3928100014C
:1008280091510001996F00019951D8A40AD0000E86
:1008380000018B6F000E00018C6F000E00018D6FA0
:100848001200000E0001956F000E0001966F000E59
:100858000001976F00019951890F0001985F8DC0C1
:1008680099F0000190510001991B800E0001991721
:1008780000018C8FFF0E00018B17FF0E00018C17F3
:10088800000E00018D1700018F8FFF0E00018E17DB
:10089800FF0E00018F17000E00019017180E0001BF
:1008A800946F00D00001D89095379637973700019C
:1008B8008E5100018B5D00018F5100018C590001A0
:1008C800905100018D59D8A00ED000018E51000121
:1008D8008B5F00018F5100018C5B0001905100017A
:1008E8008D5B000195810001D8908B378C378D374F
:1008F8000001942FD7D700D095C071F096C072F040
:1009080097C073F098C074F099C075F094EC04F037
:1009180071C08BF072C08CF073C08DF012001200A1
:10092800000174510001D8B408D0000171510001D0
:10093800721100017311D8A413D0000E0001716F59
:10094800000E0001726F000E0001736F120008D0D4
:100958000001742B0001D89073337233713300D0C7
:10096800000E000171150001766F000E000172156E
:100978000001776FFE0E000173150001786F00010A
:1009880076510001771100017811D8B413D0E0D75F
:1009980011D00001742B010E00017127000E000117
:1009A8007223000E000173230001D8907333723351
:1009B800713300D0000E000171150001766F000E32
:1009C800000172150001776FFF0E00017315000119
:1009D800786F000176510001771100017811D8B4C1
:1009E8000AD0D7D708D0000174070001D890713712
:1009F8007237733700D0000172BF05D0020E0001B4
:100A08007461F1D700D0000174B103D00001729F66
:100A180000D00001D89074330001745100017313A1
:100A2800000175510001D8B403D00001738F00D0C4
:100A380071C071F072C072F073C073F012001200CE
:100A480003D0074A082A00D007C0D9FF08C0DAFF38
:100A5800200EDE18D8B4F5D707C0D9FF08C0DAFFD2
:100A6800090EDE18D8B4EDD7000E0D6E000E0C6E10
:100A7800000E0B6E07C0D9FF08C0DAFF2D0EDE1876
:100A8800D8A402D00B2A25D007C0D9FF08C0DAFFA6
:100A98002B0EDE18D8A420D01CD01ED00CC001F01C
:100AA8000DC002F0000E046E0A0E036E80EC07F013
:100AB80007C0D9FF08C0DAFFDF50096E0A6A015083
:100AC800092602500A22D00E09240C6EFF0E0A20B5
:100AD8000D6E074A082A00D007C0D9FF08C0DAFF00
:100AE800DF5094EC07F0D8B0D9D70B50D8B40DD05C
:100AF8000CC009F00DC00AF0091E0A1E094A0A2A8C
:100B080009C007F00AC008F012000CC007F00DC0B9
:100B180008F01200000E0001766F000174AF09D0D2
:100B28000001736D741FD8B0742B010E0001766F2D
:100B380000D0000172AF09D00001716D721FD8B0EA
:100B4800722B010E0001761B00D0000E0001786F99
:100B5800000E776F0001735100017411D8B431D0C1
:100B6800010E0001756F07D00001D89073377437F4
:100B78000001752B00D0000174BF02D0F5D700D05A
:100B88000001D89077377837000173510001715D03
:100B98000001745100017259D8A00BD000017351A3
:100BA8000001715F000174510001725B00017781DF
:100BB80000D00001D890743373330001752FE0D74B
:100BC80000D0000176510001D8B406D00001776D3D
:100BD800781FD8B0782B00D077C071F078C072F049
:100BE800120012000001AB6F3CD0A9C071F0AAC07E
:100BF80072F0000E0001746F040E736F8EEC05F036
:100C0800000171510F01516F0F01509B0F01509955
:100C18001200A9C071F0AAC072F0000E0001746F32
:100C2800040E736F8EEC05F0000171510F014E6FC9
:100C38000F014D9B0F014D991200A9C071F0AAC078
:100C480072F0000E0001746F040E736F8EEC05F0E5
:100C5800000171510F014B6F0F014A9B0F014A9917
:100C680012000001AB51420AD8B4BFD7050AD8B464
:100C7800E4D7150AD8A41200CCD71200000E236EB0
:100C880021AE07D0206C211ED8B0212A010E236E78
:100C980000D01FAE07D01E6C1F1ED8B01F2A010E31
:100CA800231A00D0000E256E000E246E205021104D
:100CB800D8B421D0010E226E05D0D8902036213626
:100CC800222A00D021BE02D0F8D700D0D8902436EE
:100CD800253620501E5C21501F58D8A006D0205021
:100CE8001E5E21501F5A248000D0D8902132203215
:100CF800222EECD700D02350D8B405D0246C251E62
:100D0800D8B0252A00D024C01EF025C01FF012003C
:100D18001200286E36D026C01EF027C01FF0000E25
:100D2800216E040E206E42EC06F01E500F01516F2A
:100D38000F01509B0F015099120026C01EF027C0CA
:100D48001FF0000E216E040E206E42EC06F01E50BD
:100D58000F014E6F0F014D9B0F014D99120026C0D8
:100D68001EF027C01FF0000E216E040E206E42EC0C
:100D780006F01E500F014B6F0F014A9B0F014A9955
:100D880012002850420AD8B4C6D7050AD8B4E7D703
:100D9800150AD8A41200D1D712000001756F000EF1
:100DA8000001766F08D0C29604D0C286C2940FD0D4
:100DB800C286C2840CD000017551010AD8B4F3D799
:100DC800030AD8B4F2D7010AD8B4F2D700D0000E7B
:100DD8000001766F03D006D00001762B630E000168
:100DE8007665FAD7C28200D0C2B2FED7C4500001DD
:100DF800746F736BC350000173250001716F000E8F
:100E0800000174210001726F12001200CB68000EFD
:100E18000F01516F000E0F014E6F000E0F014B6F47
:100E28000F01509B0F0150990F014D9B0F014D99D8
:100E38000F014A9B0F014A9994503B0B946ECA923A
:100E4800CA90CA840F0150850F0150870F014D8544
:100E58000F014D870F014A850F014A87120003EEE3
:100E680000F0C80EEE6AE806FDE102EE00F0C80EDA
:100E7800EE6AE806FDE101EE00F0C80EEE6AE8064B
:100E8800FDE100EECCF00F0EEE6AE806FDE100EEA3
:100E980029F0180EEE6AE806FDE1000EF86E000172
:100EA80090EF00F079C071F07AC072F00001736BB6
:100EB8008E0E0001746F000E0001756F94EC04F043
:100EC80071C079F072C07AF073C07BF01200120022
:100ED800938E939CBA84BA98000E7C6E330E7B6E08
:100EE800080EB96EBA8AA688A68ED08EF28EF28CBB
:100EF800A38AA398A49A120001500302F3CF05F025
:100F0800F4CF06F001500402F35006260250030203
:100F1800F350062605C001F006C002F012001200C8
:100F2800036E000E026E3A0E036006D02F0E0364A5
:100F380003D0010E026E00D002C001F00130120091
:100F48001200C19EC19CC19AC198C1960F015D87CC
:100F58000F015D850F015D83C280C2841200D594A4
:100F6800D582D590D596D59AD58CF194F28AF28C03
:100F7800F28E12000AEC07F06CEC07F0A5EC07F013
:060F8800B3EC07F01200BB
:020000040020DA
:08000000FFFFFFFFFFFFFFFF00
:020000040030CA
:0E00000015087F7CFF0991FF0FC00FE00F4035
:00000001FF
