:04000000BBEF08F05A
:100F00000074657374000000000E066E04AE07D016
:100F1000036C041ED8B0042A010E066E00D002AE87
:100F200007D0016C021ED8B0022A010E061A00D0AA
:100F3000000E086E000E076E03500410D8B421D0C6
:100F4000010E056E05D0D89003360436052A00D070
:100F500004BE02D0F8D700D0D89007360836035028
:100F6000015C04500258D8A006D00350015E045022
:100F7000025A078000D0D89004320332052EECD7F5
:100F800000D00650D8B405D0076C081ED8B0082A87
:100F900000D007C001F008C002F0120012000B6E72
:100FA00036D009C001F00AC002F0000E046E040E33
:100FB000036E84EC07F001500F01516F0F01509B3D
:100FC0000F015099120009C001F00AC002F0000E92
:100FD000046E040E036E84EC07F001500F014E6F97
:100FE0000F014D9B0F014D99120009C001F00AC07D
:100FF00002F0000E046E040E036E84EC07F0015044
:101000000F014B6F0F014A9B0F014A9912000B50C1
:10101000420AD8B4EAD7050AD8B4D5D7150AD8A455
:101020001200BFD71200000E0001B16F000EB06FAA
:1010300021EE00F010EE60F04F0EDBCFE3FFE8068C
:10104000FCE2DEEC08F000D00001B04BB12B040E46
:101050000001B1190001B011D8A40CD0000E00019C
:10106000B16F000EB06F010E016E0F0E026EA3EC99
:1010700008F000D0B0C009F0B1C00AF0520ECFECB9
:1010800007F0B0C009F0B1C00AF0470ECFEC07F08E
:10109000B0C009F0B1C00AF0420ECFEC07F0D4D7CF
:1010A00000EF00F0CB68000E0F01516F000E0F0132
:1010B0004E6F000E0F014B6F0F01509B0F015099A7
:1010C0000F014D9B0F014D990F014A9B0F014A994A
:1010D00094503B0B946ECA92CA90CA840F015085FB
:1010E0000F0150870F014D850F014D870F014A8574
:1010F0000F014A8712005468697320776F726B730F
:101100000A000000000000000000000000000000D5
:1011100000000000000000000000000000000000CF
:1011200000000000000000000000000000000000BF
:1011300000000000000000000000000000000000AF
:101140000000000000000DD000D0A4A8FED701C010
:10115000F6FF02C0F7FF0800F5CF79FF014A022A27
:1011600000D001C0F6FF02C0F7FF0800F5500009EB
:10117000D8A4EBD71200F60EF66E100EF76E000E26
:10118000F86E01EE00F010EE50F00900F5CFEEFF22
:10119000E550E150FAE1000EF86E000113EF08F09F
:1011A000938E939CBA84BA98000E7C6E190E7B6E57
:1011B000080EB96EBA8AA688A68E120052EC08F004
:0611C000D0EC08F0120063
:020000040020DA
:08000000FFFFFFFFFFFFFFFF00
:020000040030CA
:0E00000015087F7CFF0991FF0FC00FE00F4035
:00000001FF
