:0400000058EF00F0C5
:10000800FACF0EF0FBCF0FF0E9CF10F054EF02F06B
:10001800D8CF60F0E8CF61F0E0CF62F0FACF63F0BC
:10002800FBCF64F0E9CF65F0EACF66F0E1CF67F087
:10003800E2CF68F0D9CF69F0DACF6AF0F3CF6BF08E
:10004800F4CF6CF0F6CF6DF0F7CF6EF0F8CF6FF01D
:10005800F5CF70F0F2BAF2A404D0F2940001CE2BDE
:1000680000D070C0F5FF6FC0F8FF6EC0F7FF6DC01D
:10007800F6FF6CC0F4FF6BC0F3FF6AC0DAFF69C01B
:10008800D9FF68C0E2FF67C0E1FF66C0EAFF65C04C
:10009800E9FF64C0FBFF63C0FAFF62C0E0FF61C014
:1000A800E8FF60C0D8FF1000D6EF06F0000E000190
:1000B800BB6F000EBC6F000EBD6F000EBE6F000E52
:1000C8000001BB6F000EBC6F000EBD6F000EBE6F4F
:1000D8000001BEBF10D00001BE5116E1A00E000104
:1000E800BB5D860E0001BC59010E0001BD59D8B098
:1000F8000BD001D009D0010E0001BB27000EBC2394
:10010800BD23BE23E5D700D077EC07F020EEBFF083
:1001180010EEA4F00E0EDBCFE3FFE806FCE2000EC3
:100128000001BA6F000E0001B36F000E0001B56F39
:10013800000EB46F000E0001B76F000EB66F000E10
:100148000001B96F000EB86F00D0000E0001BB6F40
:10015800000EBC6F000EBD6F000EBE6F0001BEBF6B
:100168000ED00001BE510001BD110001BC1110E10B
:10017800640E0001BB5DD8B00BD001D009D0010ED0
:100188000001BB27000EBC23BD23BE23E7D700D048
:10019800010E7FEC06F01EC0B4F01FC0B5F0020ED1
:1001A8007FEC06F01EC0B6F01FC0B7F0030E7FEC60
:1001B80006F01EC0B8F01FC0B9F082B00ED0000122
:1001C800B305D8A40AD00001BA510001D8A402D0BE
:1001D800010E01D0000E0001BA6F000E82B0010EB0
:1001E8000001B36F0001BA05D8A4AFD0F00E00012A
:1001F800826F7F0E0001836F470E0001846FB4C0C9
:1002080076F0B5C077F0F9EC06F076C07CF077C0F0
:100218007DF078C07EF000C176F001C177F0F9EC8E
:1002280006F076C079F077C07AF078C07BF051ECB0
:1002380004F079C07FF07AC080F07BC081F0A8EC30
:1002480003F07FC08EF080C08FF081C090F0FFEC8B
:1002580002F08EC09DF08FC09EF0520E35EC06F075
:10026800F00E0001826F7F0E0001836F470E0001C0
:10027800846FB6C076F0B7C077F0F9EC06F076C0B8
:100288007CF077C07DF078C07EF000C276F001C2C5
:1002980077F0F9EC06F076C079F077C07AF078C09C
:1002A8007BF051EC04F079C07FF07AC080F07BC01D
:1002B80081F0A8EC03F07FC08EF080C08FF081C081
:1002C80090F0FFEC02F08EC09DF08FC09EF0470EBC
:1002D80035EC06F0F00E0001826F7F0E0001836F8F
:1002E800470E0001846FB8C076F0B9C077F0F9EC1A
:1002F80006F076C07CF077C07DF078C07EF000C351
:1003080076F001C377F0F9EC06F076C079F077C0A3
:100318007AF078C07BF051EC04F079C07FF07AC0B5
:1003280080F07BC081F0A8EC03F07FC08EF080C025
:100338008FF081C090F0FFEC02F08EC09DF08FC06E
:100348009EF0420E35EC06F000D7F00E0001826FE9
:100358007F0E0001836F470E0001846FB4C076F0F2
:10036800B5C077F0F9EC06F076C07CF077C07DF088
:1003780078C07EF00001CE510FEC07F076C079F01E
:1003880077C07AF078C07BF051EC04F079C07FF048
:100398007AC080F07BC081F0A8EC03F07FC08EF0BB
:1003A80080C08FF081C090F0FFEC02F08EC09DF00D
:1003B8008FC09EF0520E35EC06F0F00E0001826FF1
:1003C8007F0E0001836F470E0001846FB6C076F080
:1003D800B7C077F0F9EC06F076C07CF077C07DF016
:1003E80078C07EF00001CE510FEC07F076C079F0AE
:1003F80077C07AF078C07BF051EC04F079C07FF0D8
:100408007AC080F07BC081F0A8EC03F07FC08EF04A
:1004180080C08FF081C090F0FFEC02F08EC09DF09C
:100428008FC09EF0470E35EC06F0F00E0001826F8B
:100438007F0E0001836F470E0001846FB8C076F00D
:10044800B9C077F0F9EC06F076C07CF077C07DF0A3
:1004580078C07EF00001CE510FEC07F076C079F03D
:1004680077C07AF078C07BF051EC04F079C07FF067
:100478007AC080F07BC081F0A8EC03F07FC08EF0DA
:1004880080C08FF081C090F0FFEC02F08EC09DF02C
:100498008FC09EF0420E35EC06F057D658EF00F0AC
:1004A800EACF11F0E1CF12F0E2CF13F0D9CF14F078
:1004B800DACF15F0F3CF16F0F4CF17F0F6CF18F027
:1004C800F7CF19F0F8CF1AF0F5CF1BF0A49A2CC08B
:1004D8001CF02DC01DF07ACF1CF03104D8B406D022
:1004E8003004D8B403D02F04D8A453D0520E1C180B
:1004F800D8B414D0470E1C18D8B410D0420E1C180B
:10050800D8B40CD02E50010D320EF324D96E000E43
:10051800F420DA6E1CC0DFFF2E2A3BD03104D8A4A9
:100528000BD0320E076E000E086E6FEC05F007C098
:1005380000F108C001F100D0000E316E3004D8A4DB
:100548000BD0320E076E000E086E6FEC05F007C078
:1005580000F208C001F200D0000E306E2F04D8A4BB
:100568000BD0320E076E000E086E6FEC05F007C058
:1005780000F308C001F300D0000E2F6E000E2E6E9F
:10058800000E356E000E346E000E336E000E326EA5
:1005980000D0520E1C18D8A403D0010E316E00D022
:1005A800470E1C18D8A403D0010E306E00D0420E9E
:1005B8001C18D8A403D0010E2F6E00D01BC0F5FF65
:1005C8001AC0F8FF19C0F7FF18C0F6FF17C0F4FFEC
:1005D80016C0F3FF15C0DAFF14C0D9FF13C0E2FF3D
:1005E80012C0E1FF11C0EAFF10C0E9FF0FC0FBFF16
:1005F8000EC0FAFF110090C092F00001936B946B4B
:1006080000018F350001923701E393810001925177
:1006180000019C6F00019C51D8A40AD0000E000173
:100628008E6F000E8F6F000E906F000E916F12008C
:10063800170E0001926F8EC093F08FC094F090C097
:1006480095F0000192290001966F05D00001D8901D
:100658009533943393330001962FF8D700019351C3
:100668000001976F00018F8FFF0E00018E17FF0E9C
:1006780000018F17000E0001901700018E51000134
:10068800986F00018F510001996F0001905100018E
:100698009A6F00019B6B8E0E00019C5F00019CAF5E
:1006A8001BD000019C51800A8F0FD8B00BD0000ED0
:1006B80000018E6F000E8F6F000E906F000E916F0D
:1006C800120000D00001D8909B339A3399339833A5
:1006D80000019C3FF7D71FD0170E00019C6514D06E
:1006E800000E00018E6F000E8F6F000E906F000ECF
:1006F800916F120009D00001D890983799379A372E
:100708009B3700019C0700D000019C510001D8B420
:1007180002D0F1D700D0000197510001D8B40AD017
:1007280000019B1F9A1F991F986D000E99239A2309
:100738009B2300D098C08EF099C08FF09AC090F09B
:100748009BC091F01200120081C085F00001866BF9
:10075800876B000180350001853701E38681000140
:10076800855100018C6F00018C51D8A40AD0000E6D
:1007780000017F6F000E0001806F000E0001816F85
:10078800120084C085F00001866B876B00018335F9
:100798000001853701E386810001855100018D6FD5
:1007A80000018D51D8A40AD0000E00017F6F000E01
:1007B8000001806F000E0001816F1200000E000121
:1007C800896F000E00018A6F000E00018B6F000117
:1007D8008D51890F00018C5F81C08DF0000184511B
:1007E80000018D1B800E00018D170001808FFF0E08
:1007F80000017F17FF0E00018017000E000181170E
:100808000001838FFF0E00018217FF0E000183177E
:10081800000E00018417180E0001886F00D0000137
:10082800D89089378A378B370001825100017F5D64
:100838000001835100018059000184510001815950
:10084800D8A00ED00001825100017F5F00018351C2
:100858000001805B000184510001815B00018981F6
:100868000001D8907F37803781370001882FD7D78C
:1008780000D089C071F08AC072F08BC073F08CC050
:1008880074F08DC075F0EBEC04F071C07FF072C0AD
:1008980080F073C081F0120012007BC022F0236A3E
:1008A800246A00017A35223601E323802250256E1E
:1008B8002550D8A40AD0000E0001796F000E00015F
:1008C8007A6F000E00017B6F12007EC022F0236A4F
:1008D800246A00017D35223601E3238022502A6EE6
:1008E8002A50D8A40AD0000E0001796F000E00012A
:1008F8007A6F000E00017B6F12002A507B0F2526AD
:100908007BC02AF000017E512A1A800E2A160001A7
:100918007A8F00017D8FFF0E00017C17FF0E00010A
:100928007D17000E00017E17000E266E000E276E42
:10093800000E286E070E296E00D0000179A10AD09A
:1009480000017C51262600017D51272200017E519D
:10095800282200D00001D8907B337A337933000104
:10096800D8907C377D377E37292EE7D700D0090EFF
:10097800296E00D0000179A10AD000017C512626F9
:1009880000017D51272200017E51282200D000015C
:10099800D8907B337A337933D8902832273226326D
:1009A800292EE8D700D026C071F027C072F028C0E1
:1009B80073F025C074F02AC075F0EBEC04F071C038
:1009C80079F072C07AF073C07BF012001200000157
:1009D80074510001D8B408D000017151000172119E
:1009E80000017311D8A413D0000E0001716F000E1E
:1009F8000001726F000E0001736F120008D0000131
:100A0800742B0001D89073337233713300D0000E09
:100A1800000171151E6E000E000172151F6EFE0E8C
:100A280000017315206E1E501F102010D8B413D06B
:100A3800E6D711D00001742B010E00017127000EBA
:100A480000017223000E000173230001D890733354
:100A58007233713300D0000E000171151E6E000E46
:100A6800000172151F6EFF0E00017315206E1E50D7
:100A78001F102010D8B40AD0DDD708D000017407A1
:100A88000001D89071377237733700D0000172BFF8
:100A980005D0020E00017461F1D700D0000174B1D5
:100AA80003D00001729F00D00001D8907433000178
:100AB800745100017313000175510001D8B403D0BB
:100AC8000001738F00D071C071F072C072F073C0F2
:100AD80073F01200120003D0074A082A00D007C09A
:100AE800D9FF08C0DAFF200EDE18D8B4F5D707C042
:100AF800D9FF08C0DAFF090EDE18D8B4EDD7000E0A
:100B08000D6E000E0C6E000E0B6E07C0D9FF08C0EC
:100B1800DAFF2D0EDE18D8A402D00B2A25D007C084
:100B2800D9FF08C0DAFF2B0EDE18D8A420D01CD0BD
:100B38001ED00CC001F00DC002F0000E046E0A0EAB
:100B4800036E39EC07F007C0D9FF08C0DAFFDF50A1
:100B5800096E0A6A0150092602500A22D00E092499
:100B68000C6EFF0E0A200D6E074A082A00D007C037
:100B7800D9FF08C0DAFFDF504DEC07F0D8B0D9D75D
:100B88000B50D8B40DD00CC009F00DC00AF0091EE6
:100B98000A1E094A0A2A09C007F00AC008F012000A
:100BA8000CC007F00DC008F01200000E1F6E000107
:100BB80074AF08D00001736D741FD8B0742B010E88
:100BC8001F6E00D0000172AF08D00001716D721F56
:100BD800D8B0722B010E1F1A00D0000E216E000E25
:100BE800206E0001735100017411D8B42CD0010E8D
:100BF8001E6E06D00001D890733774371E2A00D0B5
:100C0800000174BF02D0F6D700D0D8902036213624
:100C1800000173510001715D0001745100017259A6
:100C2800D8A00AD0000173510001715F000174510E
:100C38000001725B208000D00001D89074337333B8
:100C48001E2EE3D700D01F50D8B405D0206C211E2B
:100C5800D8B0212A00D020C071F021C072F0120053
:100C680012002B6E3CD09DC071F09EC072F0000E39
:100C78000001746F040E736FD9EC05F00001715117
:100C88000F01516F0F01509B0F01509912009DC029
:100C980071F09EC072F0000E0001746F040E736F45
:100CA800D9EC05F0000171510F014E6F0F014D9BFA
:100CB8000F014D9912009DC071F09EC072F0000E98
:100CC8000001746F040E736FD9EC05F000017151C7
:100CD8000F014B6F0F014A9B0F014A9912002B50CD
:100CE800420AD8B4C0D7050AD8B4E5D7150AD8A49B
:100CF8001200CDD71200226E000E236E08D0C296C5
:100D080004D0C286C2940ED0C286C2840BD02250B0
:100D1800010AD8B4F4D7030AD8B4F3D7010AD8B46F
:100D2800F3D700D0000E236E02D004D0232A630E1E
:100D38002364FCD7C28200D0C2B2FED7C450216E51
:100D4800206AC35020241E6E000E21201F6E120040
:100D58001200CB68000E0F01516F000E0F014E6F8D
:100D6800000E0F014B6F0F01509B0F0150990F019F
:100D78004D9B0F014D990F014A9B0F014A999450C1
:100D88003B0B946ECA92CA90CA840F0150850F011A
:100D980050870F014D850F014D870F014A850F01BF
:100DA8004A87120003EE00F0C80EEE6AE806FDE17D
:100DB80002EE00F0C80EEE6AE806FDE101EE00F072
:100DC800C80EEE6AE806FDE100EEBFF0100EEE6A0E
:100DD800E806FDE100EE2CF0160EEE6AE806FDE1ED
:100DE800000EF86E00015AEF00F076C071F077C07F
:100DF80072F00001736B8E0E0001746F000E00011B
:100E0800756FEBEC04F071C076F072C077F073C0C8
:100E180078F012001200216E21500001716F726B80
:100E2800736B8E0E0001746F000E0001756FEBEC92
:100E380004F071C076F072C077F073C078F01200D9
:100E48001200938E939CBA84BA98000E7C6E330E6F
:100E58007B6E080EB96EBA8AA688A68ED08EF28EE0
:100E6800F28CA38AA398A49A120001500302F3CF2C
:100E780005F0F4CF06F001500402F35006260250A4
:100E88000302F350062605C001F006C002F0120066
:100E98001200036E000E026E3A0E036006D02F0E8B
:100EA800036403D0010E026E00D002C001F00130CD
:100EB80012001200C19EC19CC19AC198C1960F012F
:100EC8005D870F015D850F015D83C280C2841200BA
:100ED800D590D592D594D596D59AD58CF194F28A99
:100EE800F28CF28E1200ADEC06F025EC07F05EEC09
:080EF80007F06CEC07F012009A
:020000040020DA
:08000000FFFFFFFFFFFFFFFF00
:020000040030CA
:0E00000015087F7CFF0991FF0FC00FE00F4035
:00000001FF
