:04000000BEEF00F05F
:10000800FACF11F0FBCF12F0E9CF13F0EACF14F0DA
:10001800E1CF15F0E2CF16F0D9CF17F0DACF18F00C
:10002800F3CF19F0F4CF1AF0F6CF1BF0F7CF1CF08E
:10003800F8CF1DF0F5CF1EF0A49A24C01FF025C0FC
:1000480020F07ACF1FF02804D8B406D02704D8B4FB
:1000580003D02604D8A45CD0520E1F18D8B414D0EC
:10006800470E1F18D8B410D0420E1F18D8B40CD0A1
:100078002950010D2A0EF324D96E000EF420DA6EF1
:100088001FC0DFFF292A44D02804D8A40ED02A0E86
:10009800076E000E086E36EC04F007C00EF008C0BC
:1000A8000FF0520E9FEC05F000D0000E286E2704CA
:1000B800D8A40ED02A0E076E000E086E36EC04F097
:1000C80007C00EF008C00FF0470E9FEC05F000D0F7
:1000D800000E276E2604D8A40ED02A0E076E000E36
:1000E800086E36EC04F007C00EF008C00FF0420EA0
:1000F8009FEC05F000D0000E266E000E296E000E53
:100108002D6E000E2C6E000E2B6E000E2A6E00D087
:10011800520E1F18D8A403D0010E286E00D0470E27
:100128001F18D8A403D0010E276E00D0420E1F1846
:10013800D8A403D0010E266E00D01EC0F5FF1DC046
:10014800F8FF1CC0F7FF1BC0F6FF1AC0F4FF19C068
:10015800F3FF18C0DAFF17C0D9FF16C0E2FF15C0B9
:10016800E1FF14C0EAFF13C0E9FF12C0FBFF11C092
:10017800FAFF110043EF06F0000E0001BD6F000EFC
:10018800BE6F000EBF6F000EC06FC1EC06F020EE10
:10019800C1F010EE9DF01F0EDBCFE3FFE806FCE296
:1001A80000D0000E0001BD6F000EBE6F000EBF6FC5
:1001B800000EC06F0001C0BF0FD00001C051000188
:1001C800BF1113E1E80E0001BD5D030E0001BE5929
:1001D800D8B00BD001D009D0010E0001BD27000E08
:1001E800BE23BF23C023E6D700D0F00E00017A6FEC
:1001F8007F0E00017B6F470E00017C6FC00E00016F
:100208006B6F7F0E00016C6F440E00016D6F010E65
:10021800E3EC05F021C065F022C066F064EC06F05E
:1002280065C068F066C069F067C06AF0AAEC01F0C2
:1002380068C077F069C078F06AC079F009EC03F01B
:1002480077C086F078C087F079C088F060EC02F05B
:1002580086C095F087C096F0520E08EC05F0F00EB7
:1002680000017A6F7F0E00017B6F470E00017C6FE3
:10027800C00E00016B6F7F0E00016C6F440E000111
:100288006D6F020EE3EC05F021C065F022C066F048
:1002980064EC06F065C068F066C069F067C06AF093
:1002A800AAEC01F068C077F069C078F06AC079F00C
:1002B80009EC03F077C086F078C087F079C088F041
:1002C80060EC02F086C095F087C096F0470E08EC07
:1002D80005F0F00E00017A6F7F0E00017B6F470E6C
:1002E80000017C6FC00E00016B6F7F0E00016C6F08
:1002F800440E00016D6F030EE3EC05F021C065F0BC
:1003080022C066F064EC06F065C068F066C069F06B
:1003180067C06AF0AAEC01F068C077F069C078F0AD
:100328006AC079F009EC03F077C086F078C087F0EE
:1003380079C088F060EC02F086C095F087C096F02E
:10034800420E08EC05F02DD7BEEF00F06AC06EF043
:1003580000016F6B706B0001693500016E3701E3B6
:100368006F8100016E510001716F00017151D8A4B5
:100378000AD0000E0001686F000E0001696F000EC0
:1003880000016A6F12006DC06EF000016F6B706B38
:1003980000016C3500016E3701E36F8100016E5179
:1003A8000001766F00017651D8A40AD0000E000132
:1003B800686F000E0001696F000E00016A6F12007D
:1003C800000176517B0F000171276AC076F00001A9
:1003D8006D510001761B800E000176170001698FB0
:1003E80000016C8FFF0E00016B17FF0E00016C17E8
:1003F800000E00016D17000E0001726F000E000163
:10040800736F000E0001746F070E0001756F00D046
:10041800000168A10DD000016B5100017227000195
:100428006C510001732300016D510001742300D049
:100438000001D8906A33693368330001D8906B376C
:100448006C376D370001752FE3D700D0090E000116
:10045800756F00D0000168A10DD000016B5100013B
:10046800722700016C510001732300016D510001D6
:10047800742300D00001D8906A33693368330001CF
:10048800D8907433733372330001752FE3D700D0DB
:1004980072C060F073C061F074C062F071C063F044
:1004A80076C064F0B2EC03F060C068F061C069F037
:1004B80062C06AF01200120088C08AF000018B6BDB
:1004C8008C6B0001873500018A3701E38B810001BD
:1004D8008A510001946F00019451D8A40AD0000EEB
:1004E8000001866F000E876F000E886F000E896FFF
:1004F8001200170E00018A6F86C08BF087C08CF03F
:1005080088C08DF000018A2900018E6F05D0000196
:10051800D8908D338C338B3300018E2FF8D70001A0
:100528008B5100018F6F0001878FFF0E0001861726
:10053800FF0E00018717000E000188170001865181
:100548000001906F000187510001916F00018851EF
:100558000001926F0001936B8E0E0001945F000101
:1005680094AF1BD000019451800A8F0FD8B00BD0E4
:10057800000E0001866F000E876F000E886F000E58
:10058800896F120000D00001D890933392339133D1
:1005980090330001943FF7D71FD0170E00019465E0
:1005A80014D0000E0001866F000E876F000E886F52
:1005B800000E896F120009D00001D890903791374A
:1005C800923793370001940700D00001945100013D
:1005D800D8B402D0F1D700D000018F510001D8B4AF
:1005E8000AD00001931F921F911F906D000E912356
:1005F8009223932300D090C086F091C087F092C0D8
:1006080088F093C089F01200120079C07DF00001D3
:100618007E6B7F6B0001783500017D3701E37E81B9
:1006280000017D510001846F00018451D8A40AD0D3
:10063800000E0001776F000E0001786F000E0001B8
:10064800796F12007CC07DF000017E6B7F6B00012A
:100658007B3500017D3701E37E8100017D5100017A
:10066800856F00018551D8A40AD0000E0001776F6C
:10067800000E0001786F000E0001796F1200000E65
:100688000001816F000E0001826F000E0001836F70
:1006980000018551890F0001845F79C085F0000150
:1006A8007C510001851B800E000185170001788FA1
:1006B800FF0E00017717FF0E00017817000E0001EA
:1006C800791700017B8FFF0E00017A17FF0E0001DA
:1006D8007B17000E00017C17180E0001806F00D0F8
:1006E8000001D89081378237833700017A510001A1
:1006F800775D00017B510001785900017C510001B0
:100708007959D8A00ED000017A510001775F000115
:100718007B510001785B00017C510001795B00018D
:1007280081810001D8907737783779370001802F99
:10073800D7D700D081C060F082C061F083C062F07A
:1007480084C063F085C064F0B2EC03F060C077F059
:1007580061C078F062C079F01200120000016351A4
:100768000001D8B408D000016051000161110001F6
:100778006211D8A413D0000E0001606F000E0001B2
:10078800616F000E0001626F120008D00001632B38
:100798000001D89062336133603300D0000E00014D
:1007A8006015216E000E00016115226EFE0E00011B
:1007B8006215236E215022102310D8B413D0E6D727
:1007C80011D00001632B010E00016027000E00010B
:1007D8006123000E000162230001D8906233613367
:1007E800603300D0000E00016015216E000E00017C
:1007F8006115226EFF0E00016215236E2150221032
:100808002310D8B40AD0DDD708D00001630700014F
:10081800D89060376137623700D0000161BF05D0DA
:10082800020E00016361F1D700D0000163B103D06B
:100838000001619F00D00001D8906333000163512B
:1008480000016213000164510001D8B403D0000113
:10085800628F00D060C060F061C061F062C062F079
:100868001200120003D0074A082A00D007C0D9FF97
:1008780008C0DAFF200EDE18D8B4F5D707C0D9FFB4
:1008880008C0DAFF090EDE18D8B4EDD7000E0D6ED9
:10089800000E0C6E000E0B6E07C0D9FF08C0DAFF01
:1008A8002D0EDE18D8A402D00B2A25D007C0D9FFF8
:1008B80008C0DAFF2B0EDE18D8A420D01CD01ED01A
:1008C8000CC001F00DC002F0000E046E0A0E036E9B
:1008D8008EEC06F007C0D9FF08C0DAFFDF50096EBA
:1008E8000A6A0150092602500A22D00E09240C6E09
:1008F800FF0E0A200D6E074A082A00D007C0D9FF4C
:1009080008C0DAFFDF50A2EC06F0D8B0D9D70B50F8
:10091800D8B40DD00CC009F00DC00AF0091E0A1E8B
:10092800094A0A2A09C007F00AC008F012000CC0D8
:1009380007F00DC008F01200000E0001656F0001FD
:1009480063AF09D00001626D631FD8B0632B010E3D
:100958000001656F00D0000161AF09D00001606D32
:10096800611FD8B0612B010E0001651B00D0000E7D
:100978000001676F000E666F00016251000163118C
:10098800D8B431D0010E0001646F07D00001D890AF
:10099800623763370001642B00D0000163BF02D0C7
:1009A800F5D700D00001D89066376737000162514B
:1009B8000001605D0001635100016159D8A00BD0AE
:1009C800000162510001605F000163510001615B39
:1009D8000001668100D00001D890633362330001C2
:1009E800642FE0D700D0000165510001D8B406D0CB
:1009F8000001666D671FD8B0672B00D066C060F035
:100A080067C061F0120012000001976F3CD095C0DA
:100A180060F096C061F0000E0001636F040E626F13
:100A2800A0EC04F0000160510F01516F0F01509BC1
:100A38000F015099120095C060F096C061F0000E49
:100A48000001636F040E626FA0EC04F000016051B6
:100A58000F014E6F0F014D9B0F014D99120095C06C
:100A680060F096C061F0000E0001636F040E626FC3
:100A7800A0EC04F0000160510F014B6F0F014A9B7D
:100A88000F014A99120000019751420AD8B4BFD702
:100A9800050AD8B4E4D7150AD8A41200CCD7120096
:100AA800000E066E04AE07D0036C041ED8B0042AEC
:100AB800010E066E00D002AE07D0016C021ED8B03F
:100AC800022A010E061A00D0000E086E000E076EEC
:100AD80003500410D8B421D0010E056E05D0D8906B
:100AE80003360436052A00D004BE02D0F8D700D059
:100AF800D890073608360350015C04500258D8A035
:100B080006D00350015E0450025A078000D0D890E6
:100B180004320332052EECD700D00650D8B405D0E5
:100B2800076C081ED8B0082A00D007C001F008C01A
:100B380002F012001200106E36D00EC001F00FC085
:100B480002F0000E046E040E036E54EC05F0015022
:100B58000F01516F0F01509B0F01509912000EC0E9
:100B680001F00FC002F0000E046E040E036E54EC88
:100B780005F001500F014E6F0F014D9B0F014D996C
:100B880012000EC001F00FC002F0000E046E040E39
:100B9800036E54EC05F001500F014B6F0F014A9B97
:100BA8000F014A9912001050420AD8B4C6D7050A54
:100BB800D8B4E7D7150AD8A41200D1D7120000017B
:100BC800626F000E0001636F08D0C29604D0C2861F
:100BD800C2940FD0C286C2840CD000016251010AAF
:100BE800D8B4F3D7030AD8B4F2D7010AD8B4F2D7E5
:100BF80000D0000E0001636F03D006D00001632B04
:100C0800630E00016365FAD7C28200D0C2B2FED774
:100C1800C4500001616F606BC35000016025216EF4
:100C2800000E00016121226E12001200CB68000E36
:100C38000F01516F000E0F014E6F000E0F014B6F29
:100C48000F01509B0F0150990F014D9B0F014D99BA
:100C58000F014A9B0F014A9994503B0B946ECA921C
:100C6800CA90CA840F0150850F0150870F014D8526
:100C78000F014D870F014A850F014A87120000EEC8
:100C8800C1F0300EEE6AE806FDE100EE24F0160E23
:100C9800EE6AE806FDE1900EF66E0D0EF76E000E98
:100CA800F86E00EE3AF010EE06F00900F5CFEEFF10
:100CB800E550E150FAE1000EF86E0001C0EF00F0D7
:100CC80065C060F066C061F00001626B8E0E0001C5
:100CD800636F000E0001646FB2EC03F060C065F052
:100CE80061C066F062C067F012001200938E939C98
:100CF800BA84BA98000E7C6E330E7B6E080EB96EFD
:100D0800BA8AA688A68ED08EF28EF28CA39AA39861
:100D1800A49A120001500302F3CF05F0F4CF06F0B5
:100D280001500402F350062602500302F35006262F
:100D380005C001F006C002F012001200036E000E9A
:100D4800026E3A0E036006D02F0E036403D0010E24
:100D5800026E00D002C001F0013012001200C19EE4
:100D6800C19CC19AC198C1960F015D870F015D852D
:100D78000F015D83C280C28412001AEC06F07AEC7F
:0E0D880006F0B3EC06F012000A000A000A00A2
:020000040020DA
:08000000FFFFFFFFFFFFFFFF00
:020000040030CA
:0E00000015087F7CFF0991FF0FC00FE00F4035
:00000001FF
