:04000000BEEF00F05F
:10000800FACF37F0FBCF38F0E9CF39F0EACF3AF042
:10001800E1CF3BF0E2CF3CF0D9CF3DF0DACF3EF074
:10002800F3CF3FF0F4CF40F0F6CF41F0F7CF42F0F6
:10003800F8CF43F0F5CF44F0A49A11C045F012C0B0
:1000480046F07ACF45F01504D8B406D01404D8B4D5
:1000580003D01304D8A45CD0520E4518D8B414D0D9
:10006800470E4518D8B410D0420E4518D8B40CD055
:100078001650010D170EF324D96E000EF420DA6E17
:1000880045C0DFFF162A44D01504D8A40ED0170E99
:100098002D6E000E2E6EC0EC00F02DC034F02EC078
:1000A80035F0520E75EC01F000D0000E156E1404F8
:1000B800D8A40ED0170E2D6E000E2E6EC0EC00F0D8
:1000C8002DC034F02EC035F0470E75EC01F000D08D
:1000D800000E146E1304D8A40ED0170E2D6E000E49
:1000E8002E6EC0EC00F02DC034F02EC035F0420E5C
:1000F80075EC01F000D0000E136E000E166E000EA7
:100108001A6E000E196E000E186E000E176E00D0D3
:10011800520E4518D8A403D0010E156E00D0470E14
:100128004518D8A403D0010E146E00D0420E45180D
:10013800D8A403D0010E136E00D044C0F5FF43C00D
:10014800F8FF42C0F7FF41C0F6FF40C0F4FF3FC0D0
:10015800F3FF3EC0DAFF3DC0D9FF3CC0E2FF3BC021
:10016800E1FF3AC0EAFF39C0E9FF38C0FBFF37C0FA
:10017800FAFF1100E2EF01F003D02D4A2E2A00D039
:100188002DC0D9FF2EC0DAFF200EDE18D8B4F5D75F
:100198002DC0D9FF2EC0DAFF090EDE18D8B4EDD76E
:1001A800000E336E000E326E000E316E2DC0D9FF78
:1001B8002EC0DAFF2D0EDE18D8A402D0312A25D0A1
:1001C8002DC0D9FF2EC0DAFF2B0EDE18D8A420D000
:1001D8001CD01ED032C027F033C028F0000E2A6E83
:1001E8000A0E296E11EC02F02DC0D9FF2EC0DAFFDD
:1001F800DF502F6E306A27502F2628503022D00E1D
:100208002F24326EFF0E3020336E2D4A2E2A00D056
:100218002DC0D9FF2EC0DAFFDF5025EC02F0D8B090
:10022800D9D73150D8B40DD032C02FF033C030F008
:100238002F1E301E2F4A302A2FC02DF030C02EF02E
:10024800120032C02DF033C02EF01200000E2C6EBA
:100258002AAE07D0296C2A1ED8B02A2A010E2C6E85
:1002680000D028AE07D0276C281ED8B0282A010E47
:100278002C1A00D0000E2E6E000E2D6E29502A105A
:10028800D8B421D0010E2B6E05D0D89029362A3645
:100298002B2A00D02ABE02D0F8D700D0D8902D360D
:1002A8002E362950275C2A502858D8A006D0295025
:1002B800275E2A50285A2D8000D0D8902A32293219
:1002C8002B2EECD700D02C50D8B405D02D6C2E1E78
:1002D800D8B02E2A00D02DC027F02EC028F012004A
:1002E8001200366E36D034C027F035C028F0000E24
:1002F8002A6E040E296E2AEC01F027500F01516F67
:100308000F01509B0F015099120034C027F035C0DF
:1003180028F0000E2A6E040E296E2AEC01F02750F0
:100328000F014E6F0F014D9B0F014D99120034C004
:1003380027F035C028F0000E2A6E040E296E2AEC2C
:1003480001F027500F014B6F0F014A9B0F014A998B
:1003580012003650420AD8B4C6D7050AD8B4E7D72F
:10036800150AD8A41200D1D71200CB68000E0F01CD
:10037800516F000E0F014E6F000E0F014B6F0F01F2
:10038800509B0F0150990F014D9B0F014D990F0183
:100398004A9B0F014A9994503B0B946ECA92CA909B
:1003A800CA840F0150850F0150870F014D850F0139
:1003B8004D870F014A850F014A87120000EE01F0B0
:1003C800260EEE6AE806FDE1800EF66E040EF76E64
:1003D800000EF86E00EE47F010EE06F00900F5CFBB
:1003E800EEFFE550E150FAE1000EF86E000136EF3D
:1003F80002F0938E939CBA84BA98000E7C6E330EEA
:100408007B6E080EB96EBA8AA688A68ED08EF28E3A
:10041800F28CA38AA398A49A120027502902F3CF3A
:100428002BF0F4CF2CF027502A02F3502C2628501A
:100438002902F3502C262BC027F02CC028F01200DC
:100448001200296E000E286E3A0E296006D02F0E73
:10045800296403D0010E286E00D028C027F0273069
:10046800120012003BEC02F0FFD7BEEF00F0B9EC2F
:0E04780001F0FDEC01F012000A000A000A007B
:020000040020DA
:08000000FFFFFFFFFFFFFFFF00
:020000040030CA
:0E00000015087F7CFF0991FF0FC00FE00F4035
:00000001FF
