:04000000BEEF00F05F
:10000800FACF11F0FBCF12F0E9CF13F0EACF14F0DA
:10001800E1CF15F0E2CF16F0D9CF17F0DACF18F00C
:10002800F3CF19F0F4CF1AF0F6CF1BF0F7CF1CF08E
:10003800F8CF1DF0F5CF1EF0A49A24C01FF025C0FC
:1000480020F07ACF1FF02804D8B406D02704D8B4FB
:1000580003D02604D8A45CD0520E1F18D8B414D0EC
:10006800470E1F18D8B410D0420E1F18D8B40CD0A1
:100078002950010D2A0EF324D96E000EF420DA6EF1
:100088001FC0DFFF292A44D02804D8A40ED02A0E86
:10009800076E000E086ED6EC08F007C00EF008C018
:1000A8000FF0520E8BEC09F000D0000E286E2704DA
:1000B800D8A40ED02A0E076E000E086ED6EC08F0F3
:1000C80007C00EF008C00FF0470E8BEC09F000D007
:1000D800000E276E2604D8A40ED02A0E076E000E36
:1000E800086ED6EC08F007C00EF008C00FF0420EFC
:1000F8008BEC09F000D0000E266E000E296E000E63
:100108002D6E000E2C6E000E2B6E000E2A6E00D087
:10011800520E1F18D8A403D0010E286E00D0470E27
:100128001F18D8A403D0010E276E00D0420E1F1846
:10013800D8A403D0010E266E00D01EC0F5FF1DC046
:10014800F8FF1CC0F7FF1BC0F6FF1AC0F4FF19C068
:10015800F3FF18C0DAFF17C0D9FF16C0E2FF15C0B9
:10016800E1FF14C0EAFF13C0E9FF12C0FBFF11C092
:08017800FAFF1100CEEF0AF0BE
:100F00000001000A006400E803102725750A0D009F
:100F100000006D0E0001706F000E0001716F95D022
:100F2000250E00017519D8B40AD069C0D9FF6AC06E
:100F3000DAFF75C0DFFF0001694B6A2B86D0000E17
:100F400000016F6F06D091D080D0C00E00016F13EA
:100F500013D06BC0F6FF6CC0F7FF00016B4B6C2B1E
:100F60000800F5CF75F000017551000AD8B47DD0A6
:100F7000750AD8B4EAD769D070C0D9FF71C0DAFF5A
:100F8000DECF72F0DDCF73F0020E00017027000E8D
:100F90007123010E0001756F050E00017519D8B49B
:100FA0001AD001D018D000017551020D010EF324A2
:100FB000F66E0F0EF420F76E0900F5500001725D19
:100FC0000900F55000017359D8A005D001D003D015
:100FD0000001752BE1D775C074F02FD0000174515A
:100FE000020D010EF324F66E0F0EF420F76E0900C9
:100FF000F5CF62F00A00F5CF63F072C060F073C005
:1010000061F0CFEC09F060C064F061C065F0000EE3
:101010000001676F0A0E666F41EC0AF0000164512F
:10102000300F0001756F69C0D9FF6AC0DAFF75C063
:10103000DFFF0001694B6A2B00D00001740700013B
:101040007429D8B402D0CAD700D06BC0F6FF6CC0E8
:10105000F7FF00016B4B6C2B0800F5CF75F000011A
:101060007551D8B402D05CD700D069C0D9FF6AC02E
:10107000DAFF000EDF6E12001200000E00019B6FFF
:10108000000E9C6F000E9D6F000E9E6F36EC0BF0F5
:1010900020EE9FF010EE7BF01F0EDBCFE3FFE806A3
:1010A000FCE200D0000E00019B6F000E9C6F000E52
:1010B0009D6F000E9E6F00019EBF0FD000019E51DC
:1010C00000019D1113E1600E00019B5DEA0E00011D
:1010D0009C59D8B00BD001D009D0010E00019B273C
:1010E000000E9C239D239E23E6D700D07B0E00019B
:1010F000696F000E00016A6F0B0E00016B6F0F0E1F
:1011000000016C6F010E0AEC0AF021C06DF022C0E4
:101110006EF089EC07F07B0E216E000E226E77ECEC
:101120000AF0020E0AEC0AF07B0E0001696F000E55
:1011300000016A6F0B0E00016B6F0F0E00016C6FE8
:10114000020E0AEC0AF021C06DF022C06EF089ECAC
:1011500007F07B0E216E000E226E77EC0AF0030E74
:101160000AEC0AF07B0E0001696F000E00016A6F45
:101170000B0E00016B6F0F0E00016C6F030E0AEC7B
:101180000AF021C06DF022C06EF089EC07F07B0EF2
:10119000216E000E226E77EC0AF00D0E216E0F0EFE
:1011A000226E77EC0AF07ED7BEEF00F003D0074A3C
:1011B000082A00D007C0D9FF08C0DAFF200EDE18C9
:1011C000D8B4F5D707C0D9FF08C0DAFF090EDE187A
:1011D000D8B4EDD7000E0D6E000E0C6E000E0B6E27
:1011E00007C0D9FF08C0DAFF2D0EDE18D8A402D040
:1011F0000B2A25D007C0D9FF08C0DAFF2B0EDE1856
:10120000D8A420D01CD01ED00CC001F00DC002F01C
:10121000000E046E0A0E036E03EC0BF007C0D9FF3C
:1012200008C0DAFFDF50096E0A6A01500926025031
:101230000A22D00E09240C6EFF0E0A200D6E074AFA
:10124000082A00D007C0D9FF08C0DAFFDF5017EC2A
:101250000BF0D8B0D9D70B50D8B40DD00CC009F0D2
:101260000DC00AF0091E0A1E094A0A2A09C007F021
:101270000AC008F012000CC007F00DC008F0120000
:10128000000E066E04AE07D0036C041ED8B0042A0C
:10129000010E066E00D002AE07D0016C021ED8B05F
:1012A000022A010E061A00D0000E086E000E076E0C
:1012B00003500410D8B421D0010E056E05D0D8908B
:1012C00003360436052A00D004BE02D0F8D700D079
:1012D000D890073608360350015C04500258D8A055
:1012E00006D00350015E0450025A078000D0D89007
:1012F00004320332052EECD700D00650D8B405D006
:10130000076C081ED8B0082A00D007C001F008C03A
:1013100002F012001200106E36D00EC001F00FC0A5
:1013200002F0000E046E040E036E40EC09F0015052
:101330000F01516F0F01509B0F01509912000EC009
:1013400001F00FC002F0000E046E040E036E40ECBC
:1013500009F001500F014E6F0F014D9B0F014D9988
:1013600012000EC001F00FC002F0000E046E040E59
:10137000036E40EC09F001500F014B6F0F014A9BC7
:101380000F014A9912001050420AD8B4C6D7050A74
:10139000D8B4E7D7150AD8A41200D1D71200000E8E
:1013A000236E000E226E0001625100016311D8B459
:1013B0002CD0010E216E06D00001D8906237633721
:1013C000212A00D0000163BF02D0F6D700D0D89008
:1013D00022362336000162510001605D0001635135
:1013E00000016159D8A00AD0000162510001605F7C
:1013F000000163510001615B228000D00001D890A0
:1014000063336233212EE3D700D022C060F023C0C3
:1014100061F012000001626F000E0001636F08D0DE
:10142000C29604D0C286C2940FD0C286C2840CD0A9
:1014300000016251010AD8B4F3D7030AD8B4F2D735
:10144000010AD8B4F2D700D0000E0001636F03D0B8
:1014500006D00001632B630E00016365FAD7C282D8
:1014600000D0C2B2FED7C4500001616F606BC350A0
:1014700000016025216E000E00016121226E120024
:1014800012000001665100016711D8B42BD0010E83
:101490000001686F07D00001D890663767370001F8
:1014A000682B00D0000167BF02D0F5D700D0000143
:1014B00066510001645D0001675100016559D8A0C3
:1014C00009D0000166510001645F0001675100010D
:1014D000655B00D00001D890673366330001682F48
:1014E000E6D700D064C064F065C065F0120018D083
:1014F00000D0A4A8FED721C0F6FF22C0F7FF000E3F
:10150000F86E0E0EF76403D00800F55005D0F6CF44
:10151000E1FFF7CFE2FFE750796E214A222A00D09F
:1015200021C0F6FF22C0F7FF000EF86E0E0EF76422
:1015300003D00800F55005D0F6CFE1FFF7CFE2FF6A
:10154000E7500009D8A4D5D71200CB68000E0F01D0
:10155000516F000E0F014E6F000E0F014B6F0F0108
:10156000509B0F0150990F014D9B0F014D990F0199
:101570004A9B0F014A9994503B0B946ECA92CA90B1
:10158000CA840F0150850F0150870F014D850F014F
:101590004D870F014A850F014A87120000EE9FF028
:1015A000300EEE6AE806FDE100EE24F0160EEE6A5B
:1015B000E806FDE17A0EF66E160EF76E000EF86E76
:1015C00000EE3AF010EE06F00900F5CFEEFFE55020
:1015D000E150FAE1000EF86E00013DEF08F0938E45
:1015E000939CBA84BA98000E7C6E330E7B6E080E04
:1015F000B96EBA8AA688A68ED08EF28EF28CA39A85
:10160000A398A49A120001500302F3CF05F0F4CF7F
:1016100006F001500402F350062602500302F35074
:10162000062605C001F006C002F012001200036E8B
:10163000000E026E3A0E036006D02F0E036403D034
:10164000010E026E00D002C001F001301200120043
:10165000C19EC19CC19AC198C1960F015D870F01BF
:101660005D850F015D83C280C2841200A5EC0AF083
:10167000EFEC0AF028EC0BF012000A000A000A0056
:020000040020DA
:08000000FFFFFFFFFFFFFFFF00
:020000040030CA
:0E00000015087F7CFF0991FF0FC00FE00F4035
:00000001FF
