:04000000AEEF00F06F
:10000800FACF11F0FBCF12F0E9CF13F0EACF14F0DA
:10001800E1CF15F0E2CF16F0D9CF17F0DACF18F00C
:10002800F3CF19F0F4CF1AF0F6CF1BF0F7CF1CF08E
:10003800F8CF1DF0F5CF1EF024C01FF025C020F02A
:100048007ACF1FF02804D8B406D02704D8B403D038
:100058002604D8A40CD02950010D2A0EF324D96EF9
:10006800000EF420DA6E1FC0DFFF292A00D0040E2C
:100078002918D8A43CD02804D8A40ED02A0E076E7C
:10008800000E086EB0EC00F007C00EF008C00FF0CC
:10009800520E17EC02F000D0000E286E2704D8A4E8
:1000A8000ED02A0E076E000E086EB0EC00F007C0E6
:1000B8000EF008C00FF0470E17EC02F000D0000E4B
:1000C800276E2604D8A40ED02A0E076E000E086EDE
:1000D800B0EC00F007C00EF008C00FF0420E17ECAD
:1000E80002F000D0000E266E000E296E00D0520ECF
:1000F8001F18D8A403D0010E286E00D0470E1F1871
:10010800D8A403D0010E276E00D0420E1F18D8A421
:1001180003D0010E266E00D0A49A1EC0F5FF1DC0A4
:10012800F8FF1CC0F7FF1BC0F6FF1AC0F4FF19C088
:10013800F3FF18C0DAFF17C0D9FF16C0E2FF15C0D9
:10014800E1FF14C0EAFF13C0E9FF12C0FBFF11C0B2
:10015800FAFF1100A3EF02F003D0074A082A00D0E3
:1001680007C0D9FF08C0DAFF200EDE18D8B4F5D7CB
:1001780007C0D9FF08C0DAFF090EDE18D8B4EDD7DA
:10018800000E0D6E000E0C6E000E0B6E07C0D9FF30
:1001980008C0DAFF2D0EDE18D8A402D00B2A25D00D
:1001A80007C0D9FF08C0DAFF2B0EDE18D8A420D06C
:1001B8001CD01ED00CC001F00DC002F0000E046E61
:1001C8000A0E036ED2EC02F007C0D9FF08C0DAFFAE
:1001D800DF50096E0A6A0150092602500A22D00E21
:1001E80009240C6EFF0E0A200D6E074A082A00D05B
:1001F80007C0D9FF08C0DAFFDF50E6EC02F0D8B03C
:10020800D9D70B50D8B40DD00CC009F00DC00AF0E6
:10021800091E0A1E094A0A2A09C007F00AC008F07E
:1002280012000CC007F00DC008F01200000E00010B
:10023800656F000163AF09D00001626D631FD8B01C
:10024800632B010E0001656F00D0000161AF09D07A
:100258000001606D611FD8B0612B010E0001651BA4
:1002680000D0000E0001676F000E666F000162513A
:1002780000016311D8B431D0010E0001646F07D0BA
:100288000001D890623763370001642B00D0000169
:1002980063BF02D0F5D700D00001D8906637673722
:1002A800000162510001605D000163510001615964
:1002B800D8A00BD0000162510001605F00016351BA
:1002C8000001615B0001668100D00001D8906333B2
:1002D80062330001642FE0D700D0000165510001AE
:1002E800D8B406D00001666D671FD8B0672B00D060
:1002F80066C060F067C061F012001200000E066E62
:1003080004AE07D0036C041ED8B0042A010E066E92
:1003180000D002AE07D0016C021ED8B0022A010E2E
:10032800061A00D0000E086E000E076E0350041067
:10033800D8B421D0010E056E05D0D8900336043606
:10034800052A00D004BE02D0F8D700D0D8900736CE
:1003580008360350015C04500258D8A006D0035058
:10036800015E0450025A078000D0D890043203324C
:10037800052EECD700D00650D8B405D0076C081E5F
:10038800D8B0082A00D007C001F008C002F0120057
:100398001200236E3CD021C060F022C061F0000E34
:1003A8000001636F040E626F1AEC01F000016051E6
:1003B8000F01516F0F01509B0F015099120021C07E
:1003C80060F022C061F0000E0001636F040E626FDE
:1003D8001AEC01F0000160510F014E6F0F014D9BA7
:1003E8000F014D99120021C060F022C061F0000E8B
:1003F8000001636F040E626F1AEC01F00001605196
:100408000F014B6F0F014A9B0F014A9912002350AD
:10041800420AD8B4C0D7050AD8B4E5D7150AD8A473
:100428001200CDD71200106E36D00EC001F00FC0EA
:1004380002F0000E046E040E036E82EC01F001500F
:100448000F01516F0F01509B0F01509912000EC000
:1004580001F00FC002F0000E046E040E036E82EC71
:1004680001F001500F014E6F0F014D9B0F014D9987
:1004780012000EC001F00FC002F0000E046E040E50
:10048800036E82EC01F001500F014B6F0F014A9B84
:100498000F014A9912001050420AD8B4C6D7050A6B
:1004A800D8B4E7D7150AD8A41200D1D71200CB6860
:1004B800000E0F01516F000E0F014E6F000E0F015D
:1004C8004B6F0F01509B0F0150990F014D9B0F016E
:1004D8004D990F014A9B0F014A9994503B0B946E1A
:1004E800CA92CA90CA840F0150850F0150870F0124
:1004F8004D850F014D870F014A850F014A8712006C
:10050800000E00016E6F000E6D6FF7EC02F0000E2A
:10051800226E0A0E216E520ECDEC01F0000E226EF4
:100528000A0E216E470ECDEC01F0000E226E0A0E67
:10053800216E420ECDEC01F0FFD7AEEF00F000EED9
:1005480024F0160EEE6AE806FDE1F80EF66E050ECA
:10055800F76E000EF86E00EE3AF010EE06F00900A5
:10056800F5CFEEFFE550E150FAE1000EF86E00011C
:1005780084EF02F0938E939CBA84BA98000E7C6E36
:10058800CF0E7B6E080EB96EBA8AA688A68ED08E5C
:10059800F28EF28CA38AA398A49A12000150030247
:1005A800F3CF05F0F4CF06F001500402F35006260D
:1005B80002500302F350062605C001F006C002F0FF
:1005C80012001200036E000E026E3A0E036006D08F
:1005D8002F0E036403D0010E026E00D002C001F09A
:1005E8000130120012005BEC02F0BEEC02F01200C7
:0605F800640064006400D1
:020000040020DA
:08000000FFFFFFFFFFFFFFFF00
:020000040030CA
:0E00000015087F7CFF0991FF0FC00FE00F4035
:00000001FF
