:0400000061EF00F0BC
:10000800FACF0EF0FBCF0FF0E9CF10F05FEF03F05F
:10001800D8CF60F0E8CF61F0E0CF62F0FACF63F0BC
:10002800FBCF64F0E9CF65F0EACF66F0E1CF67F087
:10003800E2CF68F0D9CF69F0DACF6AF0F3CF6BF08E
:10004800F4CF6CF0F6CF6DF0F7CF6EF0F8CF6FF01D
:10005800F5CF70F0F2BAF2A40DD0F294000ED76E7C
:100068000F0ED66E010E0001B127000EB223B32386
:10007800B42300D070C0F5FF6FC0F8FF6EC0F7FF63
:100088006DC0F6FF6CC0F4FF6BC0F3FF6AC0DAFF07
:1000980069C0D9FF68C0E2FF67C0E1FF66C0EAFF38
:1000A80065C0E9FF64C0FBFF63C0FAFF62C0E0FF00
:1000B80061C0E8FF60C0D8FF1000E1EF08F082ECF3
:1000C80009F0010E8AEC08F01EC0B8F01FC0B9F0A4
:1000D800020E8AEC08F01EC0BAF01FC0BBF0030E77
:1000E8008AEC08F01EC0BCF01FC0BDF074EC06F02E
:1000F8005CD1F00E0001826F7F0E0001836F470E06
:100108000001846FC00E00017C6F7F0E00017D6FBF
:10011800440E00017E6FB8C076F0B9C077F01AECD3
:1001280009F076C079F077C07AF078C07BF056ECA9
:1001380005F079C07FF07AC080F07BC081F0B3EC25
:1001480004F07FC08BF080C08CF081C08DF00AEC89
:1001580004F08BC09AF08CC09BF0F00E0001826F07
:100168007F0E0001836F470E0001846FC00E0001EF
:100178007C6F7F0E00017D6F440E00017E6FBAC058
:1001880076F0BBC077F01AEC09F076C079F077C04A
:100198007AF078C07BF056EC05F079C07FF07AC031
:1001A80080F07BC081F0B3EC04F07FC08BF080C09E
:1001B8008CF081C08DF00AEC04F08BC09CF08CC0F0
:1001C8009DF0F00E0001826F7F0E0001836F470ED5
:1001D8000001846FC00E00017C6F7F0E00017D6FEF
:1001E800440E00017E6FBCC076F0BDC077F01AECFB
:1001F80009F076C079F077C07AF078C07BF056ECD9
:1002080005F079C07FF07AC080F07BC081F0B3EC54
:1002180004F07FC08BF080C08CF081C08DF00AECB8
:1002280004F08BC09EF08CC09FF004EC09F049D715
:10023800F00E0001826F7F0E0001836F470E0001F0
:10024800846FB8C076F0B9C077F01AEC09F076C0C0
:100258007CF077C07DF078C07EF000C176F001C1F7
:1002680077F01AEC09F076C079F077C07AF078C0A8
:100278007BF056EC05F079C07FF07AC080F07BC047
:1002880081F0B3EC04F07FC08BF080C08CF081C0AB
:100298008DF00AEC04F08BC09AF08CC09BF0F00E45
:1002A8000001826F7F0E0001836F470E0001846F8B
:1002B800BAC076F0BBC077F01AEC09F076C07CF0D3
:1002C80077C07DF078C07EF000C176F001C177F08C
:1002D8001AEC09F076C079F077C07AF078C07BF034
:1002E80056EC05F079C07FF07AC080F07BC081F0D1
:1002F800B3EC04F07FC08BF080C08CF081C08DF02F
:100308000AEC04F08BC09CF08CC09DF0F00E00014C
:10031800826F7F0E0001836F470E0001846FBCC09F
:1003280076F0BDC077F01AEC09F076C07CF077C0A3
:100338007DF078C07EF000C176F001C177F01AEC4C
:1003480009F076C079F077C07AF078C07BF056EC87
:1003580005F079C07FF07AC080F07BC081F0B3EC03
:1003680004F07FC08BF080C08CF081C08DF00AEC67
:1003780004F08BC09EF08CC09FF004EC09F0A1D66D
:10038800E8EC01F09ED6000E00019B6F000E9A6FFC
:10039800000E00019D6F000E9C6F000E00019F6F04
:1003A800000E9E6F04EC09F08CD60001B551000ACE
:1003B800D8B49FD6010AD8B43BD7030AD8B4E0D73B
:1003C800E2D77FD661EF00F0F00E0001826F7F0E5A
:1003D8000001836F470E0001846F000E00017C6FDF
:1003E800C80E00017D6F430E00017E6FBCC076F021
:1003F800BDC077F01AEC09F076C079F077C07AF0D2
:1004080078C07BF056EC05F079C07FF07AC080F0B8
:100418007BC081F0B3EC04F07FC0A9F080C0AAF0E3
:1004280081C0ABF0F00E0001826F7F0E0001836F78
:10043800470E0001846FBAC076F0BBC077F01AECA3
:1004480009F076C07CF077C07DF078C07EF0A9C056
:1004580079F0AAC07AF0ABC07BF056EC05F079C011
:100468007FF07AC080F07BC081F0B3EC04F07FC0ED
:100478008BF080C08CF081C08DF00AEC04F0000194
:100488008BC0A4F000018CC0A5F0000E0001A5BF30
:10049800FF0EA66FA76FB1C09AF0B2C09BF0B3C0B1
:1004A8009CF0B4C09DF0F00E0001826F7F0E000139
:1004B800836F470E0001846F000E00017C6FC80E29
:1004C80000017D6F430E00017E6FBAC076F0BBC09D
:1004D80077F01AEC09F076C079F077C07AF078C036
:1004E8007BF056EC05F079C07FF07AC080F07BC0D5
:1004F80081F0B3EC04F07FC08BF080C08CF081C039
:100508008DF00AEC04F000018BC09EF000018CC055
:100518009FF00001000E9FBFFF0EA06FA16FF8ECC7
:1005280006F00001A45100019A5D0001A5510001E7
:100538009B590001A65100019C5900019D51800A58
:100548000001A86F0001A751800A0001A859D8B07E
:100558009FD0F00E0001826F7F0E0001836F470E5F
:100568000001846FC00E00017C6F7F0E00017D6F5B
:10057800440E00017E6FB8C076F0B9C077F01AEC6F
:1005880009F076C079F077C07AF078C07BF056EC45
:1005980005F079C07FF07AC080F07BC081F0B3ECC1
:1005A80004F07FC08BF080C08CF081C08DF00AEC25
:1005B80004F08BC09AF08CC09BF0F00E0001826FA3
:1005C8007F0E0001836F470E0001846FC00E00018B
:1005D8007C6F7F0E00017D6F440E00017E6FB8C0F6
:1005E80076F0B9C077F01AEC09F076C079F077C0E8
:1005F8007AF078C07BF056EC05F079C07FF07AC0CD
:1006080080F07BC081F0B3EC04F07FC08BF080C039
:100618008CF081C08DF00AEC04F08BC09CF08CC08B
:100628009DF0F00E0001826F7F0E0001836F470E70
:100638000001846FC00E00017C6F7F0E00017D6F8A
:10064800440E00017E6FB8C076F0B9C077F01AEC9E
:1006580009F076C079F077C07AF078C07BF056EC74
:1006680005F079C07FF07AC080F07BC081F0B3ECF0
:1006780004F07FC08BF080C08CF081C08DF00AEC54
:1006880004F08BC09EF08CC09FF004EC09F01200BF
:10069800000E00019B6F000E9A6F000E00019D6F07
:1006A800000E9C6F000E00019F6F000E9E6F04EC01
:1006B80009F012001200EACF11F0E1CF12F0E2CFF8
:1006C80013F0D9CF14F0DACF15F0F3CF16F0F4CF3A
:1006D80017F0F6CF18F0F7CF19F0F8CF1AF0F5CFDA
:1006E8001BF0A49A2DC01CF02EC01DF07ACF1CF070
:1006F8003104D8B406D03004D8B403D02F04D8A419
:1007080053D0520E1C18D8B414D0470E1C18D8B4A5
:1007180010D0420E1C18D8B40CD03250010D330E34
:10072800F324D96E000EF420DA6E1CC0DFFF322AE3
:100738003BD03104D8A40BD0330E076E000E086EE0
:100748007AEC07F007C000F108C001F100D0000EF4
:10075800316E3004D8A40BD0330E076E000E086E2D
:100768007AEC07F007C000F208C001F200D0000ED2
:10077800306E2F04D8A40BD0330E076E000E086E0F
:100788007AEC07F007C000F308C001F300D0000EB0
:100798002F6E000E326E000E366E000E356E000E95
:1007A800346E000E336E00D0520E1C18D8A403D03D
:1007B800010E316E00D0470E1C18D8A403D0010ECC
:1007C800306E00D0420E1C18D8A403D0010E2F6E34
:1007D80000D01BC0F5FF1AC0F8FF19C0F7FF18C0FA
:1007E800F6FF17C0F4FF16C0F3FF15C0DAFF14C0F8
:1007F800D9FF13C0E2FF12C0E1FF11C0EAFF10C029
:10080800E9FF0FC0FBFF0EC0FAFF11008DC08FF08B
:100818000001906B916B00018C3500018F3701E36B
:10082800908100018F510001996F00019951D8A45E
:100838000AD0000E00018B6F000E8C6F000E8D6FBA
:10084800000E8E6F1200170E00018F6F8BC090F094
:100858008CC091F08DC092F000018F290001936F38
:1008680005D00001D8909233913390330001932F33
:10087800F8D7000190510001946F00018C8FFF0E92
:1008880000018B17FF0E00018C17000E00018D1759
:1008980000018B510001956F00018C510001966F8A
:1008A80000018D510001976F0001986B8E0E0001B9
:1008B800995F000199AF1BD000019951800A8F0FF1
:1008C800D8B00BD0000E00018B6F000E8C6F000E9D
:1008D8008D6F000E8E6F120000D00001D8909833F3
:1008E8009733963395330001993FF7D71FD0170EEA
:1008F8000001996514D0000E00018B6F000E8C6FFB
:10090800000E8D6F000E8E6F120009D00001D89076
:1009180095379637973798370001990700D0000127
:1009280099510001D8B402D0F1D700D000019451F8
:100938000001D8B40AD00001981F971F961F956D23
:10094800000E96239723982300D095C08BF096C06D
:100958008CF097C08DF098C08EF01200120081C004
:100968002AF02B6A2C6A000180352A3601E32B8095
:100978002A500001896F00018951D8A40AD0000EBD
:1009880000017F6F000E0001806F000E0001816F73
:10099800120084C02AF02B6A2C6A000183352A369B
:1009A80001E32B802A5000018A6F00018A51D8A4E4
:1009B8000AD0000E00017F6F000E0001806F000E4C
:1009C8000001816F1200000E0001866F000E000109
:1009D800876F000E0001886F00018A51890F00019E
:1009E800895F81C08AF00001845100018A1B800E52
:1009F80000018A170001808FFF0E00017F17FF0E8C
:100A080000018017000E000181170001838FFF0E7F
:100A180000018217FF0E00018317000E00018417E2
:100A2800180E0001856F00D00001D89086378737EF
:100A380088370001825100017F5D00018351000168
:100A480080590001845100018159D8A00ED00001BD
:100A5800825100017F5F000183510001805B00012A
:100A680084510001815B000186810001D8907F37A5
:100A7800803781370001852FD7D700D086C071F025
:100A880087C072F088C073F089C074F08AC075F0AE
:100A9800F0EC05F071C07FF072C080F073C081F097
:100AA800120012007BC021F0226A236A00017A3505
:100AB800213601E322802150246E2450D8A40AD084
:100AC800000E0001796F000E00017A6F000E000120
:100AD8007B6F12007EC021F0226A236A00017D35F7
:100AE800213601E322802150296E2950D8A40AD04A
:100AF800000E0001796F000E00017A6F000E0001F0
:100B08007B6F120029507B0F24267BC029F000013F
:100B18007E51291A800E291600017A8F00017D8FD7
:100B2800FF0E00017C17FF0E00017D17000E00016B
:100B38007E17000E256E000E266E000E276E070E1D
:100B4800286E00D0000179A10AD000017C51252629
:100B580000017D51262200017E51272200D000018C
:100B6800D8907B337A3379330001D8907C377D373E
:100B78007E37282EE7D700D0090E286E00D0000156
:100B880079A10AD000017C51252600017D51262239
:100B980000017E51272200D00001D8907B337A33A0
:100BA8007933D890273226322532282EE8D700D03C
:100BB80025C071F026C072F027C073F024C074F00D
:100BC80029C075F0F0EC05F071C079F072C07AF0C8
:100BD80073C07BF012001200000174510001D8B4F8
:100BE80008D0000171510001721100017311D8A4DD
:100BF80013D0000E0001716F000E0001726F000E1D
:100C08000001736F120008D00001742B0001D89006
:100C180073337233713300D0000E000171151E6EEC
:100C2800000E000172151F6EFE0E00017315206E76
:100C38001E501F102010D8B413D0E6D711D00001D1
:100C4800742B010E00017127000E00017223000EA3
:100C5800000173230001D89073337233713300D0CD
:100C6800000E000171151E6E000E000172151F6E38
:100C7800FF0E00017315206E1E501F102010D8B4EF
:100C88000AD0DDD708D0000174070001D890713769
:100C98007237733700D0000172BF05D0020E000111
:100CA8007461F1D700D0000174B103D00001729FC4
:100CB80000D00001D89074330001745100017313FF
:100CC800000175510001D8B403D00001738F00D022
:100CD80071C071F072C072F073C073F0120012002C
:100CE800000E1E6E000E1F6E000E206E000E216E8E
:100CF80082B036D00001B605D8A432D0000E1E6EE0
:100D0800000E1F6E000E206E000E216E21BE0BD04D
:100D18002150201014E1100E1E5C270E1F58D8B069
:100D28000ED001D00CD0010E1E26000E1F2220224C
:100D3800212221BEF8D72150201001E1ECD782B042
:100D48000FD00001B605D8A40BD00001B551D8A426
:100D580004D0020E0001B56F03D00001B50700D022
:100D6800000E82B0010E0001B66F80BC37D00001C2
:100D7800B705D8A433D0000E1E6E000E1F6E000EED
:100D8800206E000E216E21BE0BD02150201014E1E0
:100D9800100E1E5C270E1F58D8B00ED001D00CD0F4
:100DA800010E1E26000E1F222022212221BEF8D766
:100DB8002150201001E1ECD780BC10D00001B7050C
:100DC800D8A40CD0020E0001B519D8A404D0000E86
:100DD8000001B56F03D00001B52B00D0000E80BC18
:100DE800010E0001B76F1200000E0001A36F000191
:100DF8009DAF0DD000019D1F9C1F9B1F9A6D000E7B
:100E08009B239C239D23010E0001A36F00D00001AA
:100E1800A1AF0AD00001A11FA01F9F1F9E6D000E49
:100E28009F23A023A12300D000019E5100019F1100
:100E38000001A0110001A111D8B43FD0010E00019A
:100E4800A26F09D00001D8909E379F37A037A137ED
:100E58000001A22B00D00001A1BF02D0F3D700D01F
:100E680000019E5100019A5D00019F5100019B59AC
:100E78000001A05100019C590001A15100019D5998
:100E8800D8A011D000019E5100019A5F00019F5126
:100E980000019B5B0001A05100019C5B0001A15176
:100EA80000019D5B00D00001D890A133A0339F338F
:100EB8009E330001A22FD4D700D00001A351000116
:100EC800D8B40AD000019D1F9C1F9B1F9A6D000E6D
:100ED8009B239C239D2300D09AC09AF09BC09BF033
:100EE8009CC09CF09DC09DF01200120003D0074AE0
:100EF800082A00D007C0D9FF08C0DAFF200EDE1884
:100F0800D8B4F5D707C0D9FF08C0DAFF090EDE1834
:100F1800D8B4EDD7000E0D6E000E0C6E000E0B6EE1
:100F280007C0D9FF08C0DAFF2D0EDE18D8A402D0FA
:100F38000B2A25D007C0D9FF08C0DAFF2B0EDE1810
:100F4800D8A420D01CD01ED00CC001F00DC002F0D7
:100F5800000E046E0A0E036E44EC09F007C0D9FFB8
:100F680008C0DAFFDF50096E0A6A015009260250EC
:100F78000A22D00E09240C6EFF0E0A200D6E074AB5
:100F8800082A00D007C0D9FF08C0DAFFDF5058ECA4
:100F980009F0D8B0D9D70B50D8B40DD00CC009F08F
:100FA8000DC00AF0091E0A1E094A0A2A09C007F0DC
:100FB8000AC008F012000CC007F00DC008F01200BB
:100FC800000E1F6E000174AF08D00001736D741F0E
:100FD800D8B0742B010E1F6E00D0000172AF08D07C
:100FE8000001716D721FD8B0722B010E1F1A00D04C
:100FF800000E216E000E206E000173510001741165
:10100800D8B42CD0010E1E6E06D00001D8907337CC
:1010180074371E2A00D0000174BF02D0F6D700D062
:10102800D89020362136000173510001715D00010E
:10103800745100017259D8A00AD0000173510001FF
:10104800715F000174510001725B208000D00001C3
:10105800D890743373331E2EE3D700D01F50D8B402
:1010680005D0206C211ED8B0212A00D020C071F0F4
:1010780021C072F012001200246E3CD022C071F020
:1010880023C072F0000E0001746F040E736FE4EC5D
:1010980007F0000171510F01516F0F01509B0F01B3
:1010A8005099120022C071F023C072F0000E0001A6
:1010B800746F040E736FE4EC07F0000171510F01B7
:1010C8004E6F0F014D9B0F014D99120022C071F018
:1010D80023C072F0000E0001746F040E736FE4EC0D
:1010E80007F0000171510F014B6F0F014A9B0F016F
:1010F8004A9912002450420AD8B4C0D7050AD8B475
:10110800E5D7150AD8A41200CDD71200226E000E1A
:10111800236E08D0C29604D0C286C2940ED0C2866E
:10112800C2840BD02250010AD8B4F4D7030AD8B429
:10113800F3D7010AD8B4F3D700D0000E236E02D03B
:1011480004D0232A630E2364FCD7C28200D0C2B223
:10115800FED7C450216E206AC35020241E6E000E94
:1011680021201F6E12001200CB68000E0F01516F74
:10117800000E0F014E6F000E0F014B6F0F01509BB9
:101188000F0150990F014D9B0F014D990F014A9B7B
:101198000F014A9994503B0B946ECA92CA90CA8424
:1011A8000F0150850F0150870F014D850F014D87A5
:1011B8000F014A850F014A87120003EE00F0C80E9E
:1011C800EE6AE806FDE102EE00F0C80EEE6AE806F7
:1011D800FDE101EE00F0C80EEE6AE806FDE100EE62
:1011E800B1F0070EEE6AE806FDE100EE2DF0160EEE
:1011F800EE6AE806FDE1000EF86E000163EF00F00C
:101208009AC022F09BC023F0520E40EC08F09CC01C
:1012180022F09DC023F0470E40EC08F09EC022F05B
:101228009FC023F0420E40EC08F0120076C071F027
:1012380077C072F00001736B8E0E0001746F000EA0
:101248000001756FF0EC05F071C076F072C077F0B0
:1012580073C078F012001200938E939CBA84BA98E7
:10126800000E7C6E330E7B6E080EB96EBA8AA688A5
:10127800A68ED08EF28EF28CA38AA398A49A12001E
:1012880001500302F3CF05F0F4CF06F00150040239
:10129800F350062602500302F350062605C001F05B
:1012A80006C002F012001200036E000E026E3A0E23
:1012B800036006D02F0E036403D0010E026E00D027
:1012C80002C001F0013012001200C19EC19CC19AF7
:1012D800C198C1960F015D870F015D850F015D8380
:1012E800C280C2841200D594D582D590D596D59A5D
:1012F800D58CF194F28AF28CF28E1200B8EC08F0D8
:0E13080030EC09F069EC09F077EC09F0120006
:020000040020DA
:08000000FFFFFFFFFFFFFFFF00
:020000040030CA
:0E00000015087F7CFF0991FF0FC00FE00F4035
:00000001FF
