:04000000B5EF00F068
:10000800FACF0EF0FBCF0FF0E9CF10F0EACF11F0E6
:10001800E1CF12F0E2CF13F0D9CF14F0DACF15F018
:10002800F3CF16F0F4CF17F0F6CF18F0F7CF19F09A
:10003800F8CF1AF0F5CF1BF0A49A2DC01CF02EC0F3
:100048001DF07ACF1CF03104D8B406D03004D8B4EF
:1000580003D02F04D8A453D0520E1C18D8B414D0EF
:10006800470E1C18D8B410D0420E1C18D8B40CD0A7
:100078003250010D330EF324D96E000EF420DA6EDF
:100088001CC0DFFF322A3BD03104D8A40BD0330E7A
:10009800076E000E086E9EEC03F007C000F108C062
:1000A80001F100D0000E316E3004D8A40BD0330E0D
:1000B800076E000E086E9EEC03F007C000F208C041
:1000C80001F200D0000E306E2F04D8A40BD0330EEE
:1000D800076E000E086E9EEC03F007C000F308C020
:1000E80001F300D0000E2F6E000E326E000E366E39
:1000F800000E356E000E346E000E336E00D0520EB8
:100108001C18D8A403D0010E316E00D0470E1C185D
:10011800D8A403D0010E306E00D0420E1C18D8A40B
:1001280003D0010E2F6E00D01BC0F5FF1AC0F8FFD8
:1001380019C0F7FF18C0F6FF17C0F4FF16C0F3FF89
:1001480015C0DAFF14C0D9FF13C0E2FF12C0E1FFE7
:1001580011C0EAFF10C0E9FF0FC0FBFF0EC0FAFF95
:10016800110051EF05F0000E0001A16F000EA06F05
:10017800CEEC05F020EEA4F010EE91F00E0EDBCFE1
:10018800E3FFE806FCE2000E0001A36F000EA26F79
:1001980000D0000E0001A16F000EA06F0001A1BFEA
:1001A8000AD00001A1510CE1640E0001A05DD8B095
:1001B80007D001D005D00001A04BA12BEFD700D06C
:1001C800010EFAEC04F01EC0A2F01FC0A3F0F00E5E
:1001D80000016F6F7F0E0001706F470E0001716F95
:1001E800A2C026F0A3C027F09CEC05F026C063F05F
:1001F80027C064F028C065F000C126F001C127F0CF
:100208009CEC05F026C060F027C061F028C062F0C1
:100218009CEC01F060C06CF061C06DF062C06EF0E3
:10022800F5EC02F06CC07BF06DC07CF06EC07DF028
:100238004CEC02F07BC08AF07CC08BF0520EB6EC1E
:1002480004F0F00E00016F6F7F0E0001706F470E13
:100258000001716FA2C026F0A3C027F09CEC05F046
:1002680026C063F027C064F028C065F000C226F0FD
:1002780001C227F09CEC05F026C060F027C061F0B1
:1002880028C062F09CEC01F060C06CF061C06DF0B9
:1002980062C06EF0F5EC02F06CC07BF06DC07CF0D3
:1002A8006EC07DF04CEC02F07BC08AF07CC08BF015
:1002B800470EB6EC04F0F00E00016F6F7F0E0001E0
:1002C800706F470E0001716FA2C026F0A3C027F01F
:1002D8009CEC05F026C063F027C064F028C065F0E8
:1002E80000C326F001C327F09CEC05F026C060F09F
:1002F80027C061F028C062F09CEC01F060C06CF08F
:1003080061C06DF062C06EF0F5EC02F06CC07BF07D
:100318006DC07CF06EC07DF04CEC02F07BC08AF0C2
:100328007CC08BF0420EB6EC04F033D7B5EF00F08A
:1003380062C029F02A6A2B6A00016135293601E377
:100348002A8029500001666F00016651D8A40AD09E
:10035800000E0001606F000E0001616F000E0001C9
:10036800626F120065C029F02A6A2B6A00016435A1
:10037800293601E32A80295000016B6F00016B5177
:10038800D8A40AD0000E0001606F000E0001616F52
:10039800000E0001626F120000016B517B0F00011B
:1003A800662762C06BF00001655100016B1B800E6F
:1003B80000016B170001618F0001648FFF0E0001BF
:1003C8006317FF0E00016417000E00016517000E89
:1003D8000001676F000E0001686F000E0001696F71
:1003E800070E00016A6F00D0000160A10DD0000166
:1003F800635100016727000164510001682300016F
:1004080065510001692300D00001D890623361333F
:1004180060330001D89063376437653700016A2F6D
:10042800E3D700D0090E00016A6F00D0000160A177
:100438000DD00001635100016727000164510001DC
:100448006823000165510001692300D00001D8909C
:100458006233613360330001D8906933683367339E
:1004680000016A2FE3D700D067C01EF068C01FF0F4
:1004780069C020F066C021F06BC022F008EC04F0DF
:100488001EC060F01FC061F020C062F012001200B0
:100498007DC07FF00001806B816B00017C3500011D
:1004A8007F3701E3808100017F510001896F0001DE
:1004B8008951D8A40AD0000E00017B6F000E7C6F12
:1004C800000E7D6F000E7E6F1200170E00017F6F09
:1004D8007BC080F07CC081F07DC082F000017F2964
:1004E8000001836F05D00001D890823381338033B7
:1004F8000001832FF8D7000180510001846F0001AB
:100508007C8FFF0E00017B17FF0E00017C17000E89
:1005180000017D1700017B510001856F00017C51AE
:100528000001866F00017D510001876F0001886B13
:100538008E0E0001895F000189AF1BD0000189512F
:10054800800A8F0FD8B00BD0000E00017B6F000E11
:100558007C6F000E7D6F000E7E6F120000D00001D0
:10056800D89088338733863385330001893FF7D79E
:100578001FD0170E0001896514D0000E00017B6F93
:10058800000E7C6F000E7D6F000E7E6F120009D08A
:100598000001D89085378637873788370001890763
:1005A80000D0000189510001D8B402D0F1D700D0A1
:1005B800000184510001D8B40AD00001881F871FA8
:1005C800861F856D000E86238723882300D085C06B
:1005D8007BF086C07CF087C07DF088C07EF012007A
:1005E80012006EC072F00001736B746B00016D3500
:1005F8000001723701E37381000172510001796FC4
:1006080000017951D8A40AD0000E00016C6F000EC9
:1006180000016D6F000E00016E6F120071C072F064
:100628000001736B746B000170350001723701E3D0
:1006380073810001725100017A6F00017A51D8A4C8
:100648000AD0000E00016C6F000E00016D6F000EE5
:1006580000016E6F1200000E0001766F000E00019F
:10066800776F000E0001786F00017A51890F000141
:10067800795F6EC07AF00001715100017A1B800E1B
:1006880000017A1700016D8FFF0E00016C17FF0E35
:1006980000016D17000E00016E170001708FFF0E2C
:1006A80000016F17FF0E00017017000E000171178F
:1006B800180E0001756F00D00001D8907637773793
:1006C800783700016F5100016C5D00017051000125
:1006D8006D590001715100016E59D8A00ED000016A
:1006E8006F5100016C5F0001705100016D5B0001EA
:1006F800715100016E5B000176810001D8906C3762
:100708006D376E370001752FD7D700D076C01EF031
:1007180077C01FF078C020F079C021F07AC022F0AD
:1007280008EC04F01EC06CF01FC06DF020C06EF025
:100738001200120003D0074A082A00D007C0D9FFC8
:1007480008C0DAFF200EDE18D8B4F5D707C0D9FFE5
:1007580008C0DAFF090EDE18D8B4EDD7000E0D6E0A
:10076800000E0C6E000E0B6E07C0D9FF08C0DAFF32
:100778002D0EDE18D8A402D00B2A25D007C0D9FF29
:1007880008C0DAFF2B0EDE18D8A420D01CD01ED04B
:100798000CC001F00DC002F0000E046E0A0E036ECC
:1007A80088EC05F007C0D9FF08C0DAFFDF50096EF2
:1007B8000A6A0150092602500A22D00E09240C6E3A
:1007C800FF0E0A200D6E074A082A00D007C0D9FF7D
:1007D80008C0DAFFDF50AFEC05F0D8B0D9D70B501E
:1007E800D8B40DD00CC009F00DC00AF0091E0A1EBD
:1007F800094A0A2A09C007F00AC008F012000CC00A
:1008080007F00DC008F012002150D8B405D01E50D2
:100818001F102010D8A40ED0000E1E6E000E1F6EE2
:10082800000E206E120006D0212AD89020321F32E6
:100838001E3200D0000E1E14236E000E1F14246EEC
:10084800FE0E2014256E235024102510D8B40ED087
:10085800EBD70CD0212A010E1E26000E1F22000EF7
:100868002022D89020321F321E3200D0000E1E14D3
:10087800236E000E1F14246EFF0E2014256E2350C5
:1008880024102510D8B408D0E5D706D02106D89072
:100898001E361F36203600D01FBE04D0020E21603F
:1008A800F5D700D021B002D01F9E00D0D8902132B9
:1008B800215020122250D8B402D0208E00D01EC061
:1008C8001EF01FC01FF020C020F012001200000E02
:1008D800236E21AE07D0206C211ED8B0212A010E2C
:1008E800236E00D01FAE07D01E6C1F1ED8B01F2A63
:1008F800010E231A00D0000E256E000E246E205023
:100908002110D8B421D0010E226E05D0D8902036FF
:100918002136222A00D021BE02D0F8D700D0D890A4
:100928002436253620501E5C21501F58D8A006D0EA
:1009380020501E5E21501F5A248000D0D8902132AA
:100948002032222EECD700D02350D8B405D0246C06
:10095800251ED8B0252A00D024C01EF025C01FF0BF
:10096800120012002C6E36D08AC01EF08BC01FF009
:10097800000E216E040E206E6BEC04F01E500F0169
:10098800516F0F01509B0F01509912008AC01EF041
:100998008BC01FF0000E216E040E206E6BEC04F06D
:1009A8001E500F014E6F0F014D9B0F014D99120004
:1009B8008AC01EF08BC01FF0000E216E040E206E40
:1009C8006BEC04F01E500F014B6F0F014A9B0F0197
:1009D8004A9912002C50420AD8B4C6D7050AD8B48E
:1009E800E7D7150AD8A41200D1D71200226E000E3C
:1009F800236E08D0C29604D0C286C2940ED0C28696
:100A0800C2840BD02250010AD8B4F4D7030AD8B450
:100A1800F3D7010AD8B4F3D700D0000E236E02D062
:100A280004D0232A630E2364FCD7C28200D0C2B24A
:100A3800FED7C450216E206AC35020241E6E000EBB
:100A480021201F6E12001200CB68000E0F01516F9B
:100A5800000E0F014E6F000E0F014B6F0F01509BE0
:100A68000F0150990F014D9B0F014D990F014A9BA2
:100A78000F014A9994503B0B946ECA92CA90CA844B
:100A88000F0150850F0150870F014D850F014D87CC
:100A98000F014A850F014A87120003EE00F0C80EC5
:100AA800EE6AE806FDE102EE00F0C80EEE6AE8061E
:100AB800FDE101EE00F0C80EEE6AE806FDE100EE89
:100AC800A4F00F0EEE6AE806FDE100EE2DF0160E1A
:100AD800EE6AE806FDE1000EF86E0001B7EF00F0DF
:100AE800938E939CBA84BA98000E7C6E330E7B6EFC
:100AF800080EB96EBA8AA688A68ED08EF28EF28CAF
:100B0800A38AA398A49A120001500302F3CF05F018
:100B1800F4CF06F001500402F350062602500302F7
:100B2800F350062605C001F006C002F012001200BC
:100B380026C01EF027C01FF0206A8E0E216E000E00
:100B4800226E08EC04F01EC026F01FC027F020C05B
:100B580028F012001200036E000E026E3A0E0360B7
:100B680006D02F0E036403D0010E026E00D002C01F
:100B780001F0013012001200C19EC19CC19AC198B7
:100B8800C1960F015D870F015D850F015D83C280EE
:100B9800C284120028EC05F074EC05F0C0EC05F0F6
:020BA800120039
:020000040020DA
:08000000FFFFFFFFFFFFFFFF00
:020000040030CA
:0E00000015087F7CFF0991FF0FC00FE00F4035
:00000001FF
