:0400000061EF00F0BC
:10000800FACF0EF0FBCF0FF0E9CF10F0FFEF03F0BF
:10001800D8CF60F0E8CF61F0E0CF62F0FACF63F0BC
:10002800FBCF64F0E9CF65F0EACF66F0E1CF67F087
:10003800E2CF68F0D9CF69F0DACF6AF0F3CF6BF08E
:10004800F4CF6CF0F6CF6DF0F7CF6EF0F8CF6FF01D
:10005800F5CF70F0F2BAF2A40DD0F294000ED76E7C
:100068000F0ED66E010E0001C627000EC723C82347
:10007800C92300D070C0F5FF6FC0F8FF6EC0F7FF4E
:100088006DC0F6FF6CC0F4FF6BC0F3FF6AC0DAFF07
:1000980069C0D9FF68C0E2FF67C0E1FF66C0EAFF38
:1000A80065C0E9FF64C0FBFF63C0FAFF62C0E0FF00
:1000B80061C0E8FF60C0D8FF1000D3EF09F0000E60
:1000C8000001856F800E0001866F3F0E0001876F6B
:1000D800C30E00017C6F750E00017D6F3F0E00019D
:1000E8007E6FC0C079F0C1C07AF0C2C07BF053EC1B
:1000F80005F079C07FF07AC080F07BC081F0F6EC23
:1001080009F07FC082F080C083F081C084F0D8EC11
:1001180001F082C0ACF083C0ADF084C0AEF0000E38
:1001280000017C6F7A0E00017D6F440E00017E6F26
:10013800ACC079F0ADC07AF0AEC07BF053EC05F0FE
:1001480079C0AFF07AC0B0F07BC0B1F0C30E000147
:10015800856F750E0001866F3D0E0001876FA40E36
:1001680000017C6F700E00017D6F3F0E00017E6FF5
:10017800C3C079F0C4C07AF0C5C07BF053EC05F079
:1001880079C082F07AC083F07BC084F0D8EC01F0AB
:1001980082C0B2F083C0B3F084C0B4F0000E000196
:1001A800856F800E0001866F3F0E0001876FC30EBA
:1001B80000017C6F750E00017D6F3F0E00017E6FA0
:1001C800C0C079F0C1C07AF0C2C07BF053EC05F032
:1001D80079C07FF07AC080F07BC081F0F6EC09F03E
:1001E8007FC082F080C083F081C084F0D8EC01F039
:1001F80082C0B5F083C0B6F084C0B7F0AFC07CF061
:10020800B0C07DF0B1C07EF0B2C079F0B3C07AF072
:10021800B4C07BF053EC05F079C08EF07AC08FF053
:100228007BC090F0AAEC04F000018EC0A7F000019A
:100238008FC0A8F0000E0001A8BFFF0EA96FAA6F1B
:10024800C6C09DF0C7C09EF0C8C09FF0C9C0A0F04E
:10025800000E00017C6F7A0E00017D6F440E0001D4
:100268007E6FB5C079F0B6C07AF0B7C07BF053ECBA
:1002780005F079C08EF07AC08FF07BC090F0AAECC0
:1002880004F000018EC0A1F000018FC0A2F00001AF
:10029800000EA2BFFF0EA36FA46F89EC07F0000148
:1002A800A75100019D5D0001A85100019E59000160
:1002B800A95100019F590001A051800A0001AB6FAC
:1002C8000001AA51800A0001AB59D8B05AD0C00E1B
:1002D80000017C6F7F0E00017D6F440E00017E6F70
:1002E800BDC079F0BEC07AF0BFC07BF053EC05F01A
:1002F80079C08EF07AC08FF07BC090F0AAEC04F041
:100308008EC09DF08FC09EF0C00E00017C6F7F0EE6
:1003180000017D6F440E00017E6FBDC079F0BEC044
:100328007AF0BFC07BF053EC05F079C08EF07AC04C
:100338008FF07BC090F0AAEC04F08EC09FF08FC0C5
:10034800A0F0C00E00017C6F7F0E00017D6F440E8F
:1003580000017E6FBDC079F0BEC07AF0BFC07BF0EF
:1003680053EC05F079C08EF07AC08FF07BC090F026
:10037800AAEC04F08EC0A1F08FC0A2F00EEC0AF037
:100388001200000E00019E6F000E9D6F000E00010E
:10039800A06F000E9F6F000E0001A26F000EA16FEC
:1003A8000EEC0AF01200120084C088F00001896B7C
:1003B8008A6B000183350001883701E389810001D8
:1003C800885100018D6F87C088F00001896B8A6BA6
:1003D800000186350001883701E3898100018851D1
:1003E80000018C6F00018D510001D8B411D00001BB
:1003F8008C5100018D5DD8B012D000018D510008DC
:1004080000018C250001886F180E0001886507D04F
:1004180085C082F086C083F087C084F01200000196
:100428008C510001D8B411D000018D5100018C5DB0
:10043800D8B012D000018C51000800018D250001B0
:10044800886F180E0001886507D082C082F083C0CB
:1004580083F084C084F01200060E00018B6F000147
:1004680084AF03D000018B8F00D0000187AF02D08A
:1004780000018B8D0001838FFF0E00018217FF0E94
:1004880000018317000E000184170001868FFF0EFC
:1004980000018517FF0E00018617000E000187175F
:1004A80000018C5100018D5DD8B028D00001D89092
:1004B80085378637873700018C0700018D51000189
:1004C8008C19D8B413D000018B078BC088F0070EA5
:1004D80000018817D8B40AD0E9D708D00001D8900D
:1004E80084338333823300018D2B00D000018C517B
:1004F80000018D19D8B430D0F1D72ED000018D511C
:1005080000018C5DD8B028D00001D890823783379D
:10051800843700018D0700018D5100018C19D8B472
:1005280013D000018B078BC088F0070E00018817D5
:10053800D8B40AD0E9D708D00001D89087338633D9
:10054800853300018C2B00D000018C5100018D19DE
:10055800D8B402D0F1D700D000018BAF12D0FF0E73
:100568000001821BFF0E0001831BFF0E0001841B8C
:10057800010E00018227000E00018323000E0001F6
:10058800842300018BAD13D0FF0E0001851BFF0EE5
:100598000001861BFF0E0001871B010E0001852745
:1005A800000E00018623000E0001872300D0000EF4
:1005B80000018B6F000182510001852700018351E2
:1005C800000186230001845100018723000187AFC1
:1005D80016D0FF0E0001851BFF0E0001861BFF0EC3
:1005E8000001871B010E00018527000E00018623EC
:1005F800000E00018723010E00018B6F00D085C01B
:1006080071F086C072F087C073F08DC074F08BC033
:1006180075F081EC06F071C082F072C083F073C08F
:1006280084F0120012008CEC0AF075EC08F005EC6E
:1006380007F0D2D0C00E00017C6F7F0E00017D6FE5
:10064800440E00017E6FBDC079F0BEC07AF0BFC015
:100658007BF053EC05F079C08EF07AC08FF07BC048
:1006680090F0AAEC04F08EC09DF08FC09EF0C00EF2
:1006780000017C6F7F0E00017D6F440E00017E6FCC
:10068800C0C079F0C1C07AF0C2C07BF053EC05F06D
:1006980079C08EF07AC08FF07BC090F0AAEC04F09D
:1006A8008EC09FF08FC0A0F0C00E00017C6F7F0E3F
:1006B80000017D6F440E00017E6FC3C079F0C4C095
:1006C8007AF0C5C07BF053EC05F079C08EF07AC0A3
:1006D8008FF07BC090F0AAEC04F08EC0A1F08FC020
:1006E800A2F00EEC0AF0A1D7BDC07CF0BEC07DF030
:1006F800BFC07EF000C176F001C177F024EC0AF0AB
:1007080076C079F077C07AF078C07BF053EC05F0CA
:1007180079C08EF07AC08FF07BC090F0AAEC04F01C
:100728008EC09DF08FC09EF0C0C07CF0C1C07DF02F
:10073800C2C07EF000C276F001C277F024EC0AF065
:1007480076C079F077C07AF078C07BF053EC05F08A
:1007580079C08EF07AC08FF07BC090F0AAEC04F0DC
:100768008EC09FF08FC0A0F0C3C07CF0C4C07DF0E5
:10077800C5C07EF000C376F001C377F024EC0AF020
:1007880076C079F077C07AF078C07BF053EC05F04A
:1007980079C08EF07AC08FF07BC090F0AAEC04F09C
:1007A8008EC0A1F08FC0A2F00EEC0AF03ED763EC29
:1007B80000F03BD7000E00019E6F000E9D6F000EEB
:1007C8000001A06F000E9F6F000E0001A26F000EC7
:1007D800A16F0EEC0AF029D70001CA51000AD8B45B
:1007E80029D7010AD8B480D7030AD8B4E0D7E2D70A
:1007F8001CD761EF00F0EACF11F0E1CF12F0E2CFA1
:1008080013F0D9CF14F0DACF15F0F3CF16F0F4CFF8
:1008180017F0F6CF18F0F7CF19F0F8CF1AF0F5CF98
:100828001BF0A49A2DC01CF02EC01DF07ACF1CF02E
:100838003104D8B406D03004D8B403D02F04D8A4D7
:1008480053D0520E1C18D8B414D0470E1C18D8B464
:1008580010D0420E1C18D8B40CD03250010D330EF3
:10086800F324D96E000EF420DA6E1CC0DFFF322AA2
:100878003BD03104D8A40BD0330E076E000E086E9F
:100888000BEC08F007C000F108C001F100D0000E21
:10089800316E3004D8A40BD0330E076E000E086EEC
:1008A8000BEC08F007C000F208C001F200D0000EFF
:1008B800306E2F04D8A40BD0330E076E000E086ECE
:1008C8000BEC08F007C000F308C001F300D0000EDD
:1008D8002F6E000E326E000E366E000E356E000E54
:1008E800346E000E336E00D0520E1C18D8A403D0FC
:1008F800010E316E00D0470E1C18D8A403D0010E8B
:10090800306E00D0420E1C18D8A403D0010E2F6EF2
:1009180000D01BC0F5FF1AC0F8FF19C0F7FF18C0B8
:10092800F6FF17C0F4FF16C0F3FF15C0DAFF14C0B6
:10093800D9FF13C0E2FF12C0E1FF11C0EAFF10C0E7
:10094800E9FF0FC0FBFF0EC0FAFF110090C092F044
:100958000001936B946B00018F350001923701E31E
:1009680093810001925100019C6F00019C51D8A411
:100978000AD0000E00018E6F000E8F6F000E906F70
:10098800000E916F1200170E0001926F8EC093F047
:100998008FC094F090C095F0000192290001966FE5
:1009A80005D00001D8909533943393330001962FE6
:1009B800F8D7000193510001976F00018F8FFF0E48
:1009C80000018E17FF0E00018F17000E000190170F
:1009D80000018E510001986F00018F510001996F3D
:1009E8000001905100019A6F00019B6B8E0E00016F
:1009F8009C5F00019CAF1BD000019C51800A8F0FA7
:100A0800D8B00BD0000E00018E6F000E8F6F000E55
:100A1800906F000E916F120000D00001D8909B33A8
:100A28009A339933983300019C3FF7D71FD0170E9C
:100A380000019C6514D0000E00018E6F000E8F6FB0
:100A4800000E906F000E916F120009D00001D8902F
:100A5800983799379A379B3700019C0700D00001D7
:100A68009C510001D8B402D0F1D700D000019751B1
:100A78000001D8B40AD000019B1F9A1F991F986DD6
:100A8800000E99239A239B2300D098C08EF099C01A
:100A98008FF09AC090F09BC091F0120012007BC0BA
:100AA80024F0256A266A00017A35243601E3258078
:100AB8002450276E2750D8A40AD0000E0001796F61
:100AC800000E00017A6F000E00017B6F12007EC0DD
:100AD80024F0256A266A00017D35243601E3258045
:100AE80024502C6E2C50D8A40AD0000E0001796F27
:100AF800000E00017A6F000E00017B6F12002C506F
:100B08007B0F27267BC02CF000017E512C1A800E0B
:100B18002C1600017A8F00017D8FFF0E00017C17D3
:100B2800FF0E00017D17000E00017E17000E286ED3
:100B3800000E296E000E2A6E070E2B6E00D00001E3
:100B480079A10AD000017C51282600017D51292273
:100B580000017E512A2200D00001D8907B337A33DD
:100B680079330001D8907C377D377E372B2EE7D735
:100B780000D0090E2B6E00D0000179A10AD0000127
:100B88007C51282600017D51292200017E512A220C
:100B980000D00001D8907B337A337933D8902A3249
:100BA800293228322B2EE8D700D028C071F029C06E
:100BB80072F02AC073F027C074F02CC075F081EC75
:100BC80006F071C079F072C07AF073C07BF0120041
:100BD80012007BC024F0256A266A00017A35243683
:100BE80001E3258024502B6E2B50D8A40AD0000E88
:100BF8000001796F000E00017A6F000E00017B6F13
:100C080012007EC024F0256A266A00017D3524364C
:100C180001E3258024502C6E2C50D8A40AD0000E55
:100C28000001796F000E00017A6F000E00017B6FE2
:100C38001200000E286E000E296E000E2A6E2C502F
:100C4800890F2B5E7BC02CF000017E512C1A800E80
:100C58002C1600017A8FFF0E00017917FF0E000194
:100C68007A17000E00017B1700017D8FFF0E00012F
:100C78007C17FF0E00017D17000E00017E17180E6D
:100C8800276E00D0D890283629362A3600017C51A4
:100C98000001795D00017D5100017A5900017E5102
:100CA80000017B59D8A00DD000017C510001795F6B
:100CB80000017D5100017A5B00017E5100017B5BE0
:100CC80028800001D89079377A377B37272EDAD7F2
:100CD80000D028C071F029C072F02AC073F02BC070
:100CE80074F02CC075F081EC06F071C079F072C018
:100CF8007AF073C07BF012001200000174510001F9
:100D0800D8B408D0000171510001721100017311AB
:100D1800D8A413D0000E0001716F000E0001726F8D
:100D2800000E0001736F120008D00001742B00013F
:100D3800D89073337233713300D0000E00017115EF
:100D48001E6E000E000172151F6EFE0E0001731557
:100D5800206E1E501F102010D8B413D0E6D711D023
:100D68000001742B010E00017127000E000172238F
:100D7800000E000173230001D8907333723371336E
:100D880000D0000E000171151E6E000E00017215D4
:100D98001F6EFF0E00017315206E1E501F102010CD
:100DA800D8B40AD0DDD708D0000174070001D89064
:100DB80071377237733700D0000172BF05D0020E49
:100DC80000017461F1D700D0000174B103D00001B3
:100DD800729F00D00001D890743300017451000153
:100DE8007313000175510001D8B403D00001738F4B
:100DF80000D071C071F072C072F073C073F012004D
:100E08001200000E1E6E000E1F6E000E206E000EE9
:100E1800216E82B036D00001CB05D8A432D0000EA6
:100E28001E6E000E1F6E000E206E000E216E21BE7B
:100E38000BD02150201014E1100E1E5C270E1F58F5
:100E4800D8B00ED001D00CD0010E1E26000E1F22E5
:100E58002022212221BEF8D72150201001E1ECD711
:100E680082B00FD00001CB05D8A40BD00001CA5125
:100E7800D8A404D0020E0001CA6F03D00001CA072B
:100E880000D0000E82B0010E0001CB6F80BC37D0BD
:100E98000001CC05D8A433D0000E1E6E000E1F6EC4
:100EA800000E206E000E216E21BE0BD021502010A6
:100EB80014E1100E1E5C270E1F58D8B00ED001D0BA
:100EC8000CD0010E1E26000E1F222022212221BE38
:100ED800F8D72150201001E1ECD780BC10D00001D8
:100EE800CC05D8A40CD0020E0001CA19D8A404D08D
:100EF800000E0001CA6F03D00001CA2B00D0000EFB
:100F080080BC010E0001CC6F1200000E0001A66F1C
:100F18000001A0AF0DD00001A01F9F1F9E1F9D6D57
:100F2800000E9E239F23A023010E0001A66F00D070
:100F38000001A4AF0AD00001A41FA31FA21FA16D26
:100F4800000EA223A323A42300D00001A151000175
:100F5800A2110001A3110001A411D8B43FD0010EC1
:100F68000001A56F09D00001D890A137A237A33797
:100F7800A4370001A52B00D00001A4BF02D0F3D7ED
:100F880000D00001A15100019D5D0001A2510001A6
:100F98009E590001A35100019F590001A45100016D
:100FA800A059D8A011D00001A15100019D5F0001F6
:100FB800A25100019E5B0001A35100019F5B00014B
:100FC800A4510001A05B00D00001D890A433A33342
:100FD800A233A1330001A52FD4D700D00001A65118
:100FE8000001D8B40AD00001A01F9F1F9E1F9D6D4D
:100FF800000E9E239F23A02300D09DC09DF09EC07D
:101008009EF09FC09FF0A0C0A0F01200120003D075
:10101800074A082A00D007C0D9FF08C0DAFF200E07
:10102800DE18D8B4F5D707C0D9FF08C0DAFF090E13
:10103800DE18D8B4EDD7000E0D6E000E0C6E000E43
:101048000B6E07C0D9FF08C0DAFF2D0EDE18D8A432
:1010580002D00B2A25D007C0D9FF08C0DAFF2B0E13
:10106800DE18D8A420D01CD01ED00CC001F00DC0B2
:1010780002F0000E046E0A0E036E4EEC0AF007C072
:10108800D9FF08C0DAFFDF50096E0A6A0150092645
:1010980002500A22D00E09240C6EFF0E0A200D6E93
:1010A800074A082A00D007C0D9FF08C0DAFFDF5076
:1010B80062EC0AF0D8B0D9D70B50D8B40DD00CC018
:1010C80009F00DC00AF0091E0A1E094A0A2A09C0B9
:1010D80007F00AC008F012000CC007F00DC008F0B5
:1010E8001200010E7CEC09F01EC076F01FC077F0EC
:1010F80024EC0AF076C079F077C07AF078C07BF0FB
:10110800F00E00017C6F7F0E00017D6F470E00011D
:101118007E6FEDEC05F079C0BDF07AC0BEF07BC003
:10112800BFF0020E7CEC09F01EC076F01FC077F00D
:1011380024EC0AF076C079F077C07AF078C07BF0BA
:10114800F00E00017C6F7F0E00017D6F470E0001DD
:101158007E6FEDEC05F079C0C0F07AC0C1F07BC0BD
:10116800C2F0030E7CEC09F01EC076F01FC077F0C9
:1011780024EC0AF076C079F077C07AF078C07BF07A
:10118800F00E00017C6F7F0E00017D6F470E00019D
:101198007E6FEDEC05F079C0C3F07AC0C4F07BC077
:1011A800C5F01200000E1F6E000174AF08D00001D8
:1011B800736D741FD8B0742B010E1F6E00D0000120
:1011C80072AF08D00001716D721FD8B0722B010E7A
:1011D8001F1A00D0000E216E000E206E0001735100
:1011E80000017411D8B42CD0010E1E6E06D0000177
:1011F800D890733774371E2A00D0000174BF02D00C
:10120800F6D700D0D890203621360001735100015E
:10121800715D0001745100017259D8A00AD0000113
:1012280073510001715F000174510001725B2080ED
:1012380000D00001D890743373331E2EE3D700D04A
:101248001F50D8B405D0206C211ED8B0212A00D058
:1012580020C071F021C072F012001200246E3CD040
:1012680022C071F023C072F0000E0001746F040EEA
:10127800736FD6EC08F0000171510F01516F0F0127
:10128800509B0F015099120022C071F023C072F0D8
:10129800000E0001746F040E736FD6EC08F00001A5
:1012A80071510F014E6F0F014D9B0F014D991200A7
:1012B80022C071F023C072F0000E0001746F040E9A
:1012C800736FD6EC08F0000171510F014B6F0F01DD
:1012D8004A9B0F014A9912002450420AD8B4C0D739
:1012E800050AD8B4E5D7150AD8A41200CDD712003C
:1012F800226E000E236E08D0C29604D0C286C29415
:101308000ED0C286C2840BD02250010AD8B4F4D7BA
:10131800030AD8B4F3D7010AD8B4F3D700D0000E23
:10132800236E02D004D0232A630E2364FCD7C28222
:1013380000D0C2B2FED7C450216E206AC350202408
:101348001E6E000E21201F6E12001200CB68000EC8
:101358000F01516F000E0F014E6F000E0F014B6F02
:101368000F01509B0F0150990F014D9B0F014D9993
:101378000F014A9B0F014A9994503B0B946ECA92F5
:10138800CA90CA840F0150850F0150870F014D85FF
:101398000F014D870F014A850F014A87120003EE9E
:1013A80000F0C80EEE6AE806FDE102EE00F0C80E95
:1013B800EE6AE806FDE101EE00F0C80EEE6AE80606
:1013C800FDE100EEC6F0070EEE6AE806FDE100EE6C
:1013D8002DF0160EEE6AE806FDE1000EF86E00012B
:1013E80017EF03F000017F51000180110001811106
:1013F800D8B409D0000E00017F1B000E0001801B2D
:10140800800E0001811B7FC07FF080C080F081C00A
:1014180081F012009DC022F09EC023F0520E32ECE3
:1014280009F09FC022F0A0C023F0470E32EC09F06B
:10143800A1C022F0A2C023F0420E32EC09F0120043
:1014480076C071F077C072F00001736B8E0E0001E8
:10145800746F000E0001756F81EC06F071C076F0B4
:1014680072C077F073C078F012001200938E939CCC
:10147800BA84BA98000E7C6E330E7B6E080EB96E75
:10148800BA8AA688A68ED08EF28EF28CA38AA398EA
:10149800A49A120001500302F3CF05F0F4CF06F02E
:1014A80001500402F350062602500302F3500626A8
:1014B80005C001F006C002F012001200036E000E13
:1014C800026E3A0E036006D02F0E036403D0010E9D
:1014D800026E00D002C001F0013012001200C19E5D
:1014E800C19CC19AC198C1960F015D870F015D85A6
:1014F8000F015D83C280C2841200D594D582D59035
:10150800D596D59AD58CF194F28AF28CF28E120087
:10151800AAEC09F03AEC0AF073EC0AF081EC0AF054
:021528001200AF
:020000040020DA
:08000000FFFFFFFFFFFFFFFF00
:020000040030CA
:0E00000015087F7CFF0991FF0FC00FE00F4035
:00000001FF
